:100000000C94FA000C9420010C9420010C94200113
:100010000C9420010C9420010C9420010C942001DC
:100020000C9420010C9420010C9420010C942001CC
:100030000C9420010C9420010C9420010C942001BC
:100040000C9420010C9420010C9420010C942001AC
:100050000C9420010C9420010C9420010C9420019C
:100060000C9420010C9420010C9420010C9420018C
:100070000C9420010C9420010C9420010C9420017C
:100080000C9420010C9420010C9420010C9420016C
:100090000C9420010C9420010C9420010C9420015C
:1000A0000C9420010C9420010C9420010C9420014C
:1000B0000C9420010C9420010C9420010C9420013C
:1000C0000C9420010C9420010C9420010C9420012C
:1000D0000C9420010C9420010C9420010C9420011C
:1000E0000C9420010C9420010C9476010C942001B6
:1000F0000C9422010C9420010C9420010C942001FA
:100100000C9420010C9420010C9420010C942001EB
:100110000C9420010C9420010C9420010C942001DB
:100120000C9420010C9420010C9420010C942001CB
:100130000C9420010C9420010C9420010C942001BB
:100140000C9420010C9420010C9420010C942001AB
:100150000C9420010C9420010C9420010C9420019B
:100160000C9420010C9420010C9420010C9420018B
:100170000C9420010C9420010C9420010C9420017B
:100180000C9420010C9420010C9420010C9420016B
:100190000C9420010C9420010C9420010C9420015B
:1001A0000C9420010C9420010C9420010C9420014B
:1001B0000C9420010C9420010C9420010C9420013B
:1001C0000C9420010C9420010C9420010C9420012B
:1001D0000C9420010C9420010C9420010C9420011B
:1001E0000C9420010C9420010C9420010C9420010B
:1001F0000C94200111241FBECFEFDFE3DEBFCDBF83
:1002000000E00CBF18BE19BE1ABE1BBE10E2A0E073
:10021000B0E2E6E8F4E100E00BBF02C007900D9207
:10022000A632B107D9F71BBE10E2A6E2B0E201C0C8
:100230001D92A73CB107E1F70E94B6060C94410A53
:100240000C9400001F920F920FB60F92112408B663
:100250000F9218BE09B60F9219BE0BB60F921BBEB5
:100260002F933F935F936F937F938F939F93AF935E
:10027000BF93EF93FF93809164209091652020912C
:100280006620309167208217930769F121E020935F
:100290007220E0916020F0916120E80FF91F208129
:1002A0002093A00A019660916220709163200E94C1
:1002B00073078093642090936520FF91EF91BF9125
:1002C000AF919F918F917F916F915F913F912F910E
:1002D0000F900BBE0F9009BE0F9008BE0F900FBE7F
:1002E0000F901F90189510927220E7CF1F920F92D7
:1002F0000FB60F92112408B60F9218BE09B60F92CE
:1003000019BE0BB60F921BBE2F933F934F935F9373
:100310006F937F938F939F93AF93BF93EF93FF93CD
:1003200080916C2090916D200097D1F1AC014150EB
:10033000510920916E2030916F202417350709F460
:1003400045C08091A00AE0916820F0916920E20FF9
:10035000F31F808380916E2090916F2001966091B1
:100360006A2070916B200E94730780936E20909397
:100370006F20FF91EF91BF91AF919F918F917F91EE
:100380006F915F914F913F912F910F900BBE0F9006
:1003900009BE0F9008BE0F900FBE0F901F901895CA
:1003A00060916A2070916B20AB01415051092091FE
:1003B0006E2030916F202417350719F601960E94A0
:1003C000730780936C2090936D20BBCF60916A205F
:1003D00070916B2001960E94730780936C2090931C
:1003E0006D20AFCF803B29E09207D9F17CF4803BB0
:1003F00028E0920791F1803A29E0920751F1803A82
:10040000984019F120E030E0C9010895803B2AE0CE
:10041000920799F05CF0803A2BE0920791F0803BD4
:100420009B4081F72AE330E2C9010895803A9A405F
:1004300049F720E630E2C90108952CEA30E2C9010B
:1004400008952DE430E2C901089529E930E2C90197
:10045000089526E830E2C901089523E730E2C90192
:10046000089527E230E2C9010895AF92BF92CF927A
:10047000DF92EF92FF920F931F93CF93DF93FC01D4
:10048000EB01DA0144FD2DC088E08D83898384E08F
:100490008A8316962C93169717963C93179788E1A4
:1004A00014968C93149783E015968C931597C083BC
:1004B000D183A283B3832483358306831783E086A5
:1004C000F186C286D386A486B586CF01DF91CF910F
:1004D0001F910F91FF90EF90DF90CF90BF90AF9062
:1004E000089580E88D83898380E48A83D2CFEF9258
:1004F000FF920F931F93CF93DF931F92CDB7DEB779
:100500007C01DC0112960D911C911397C80169833F
:100510000E94F201FC01808991896981892B09F08F
:1005200044C0E08AF18AD70116968D919C91179765
:100530008083918318968D919C91199782839383E0
:1005400014821582168217821A968D919C911B97A0
:10055000808791871C968D919C911D9782879387A8
:10056000148615861686178688E2F801838366232B
:10057000C9F0E092BF20F092C02080E090E280932A
:10058000C3209093C4208093C1209093C22020E088
:1005900030E0C9010F90DF91CF911F910F91FF9033
:1005A000EF90089520E030E0F4CF2FEF3FEFF1CF50
:1005B0000F931F93CF93DF93EC010A811B81C80136
:1005C0000E94F201FC01208931892C173D0761F45A
:1005D000108A118AF801138220E030E0C901DF910E
:1005E000CF911F910F9108952FEF3FEFC901DF9138
:1005F000CF911F910F9108958F929F92AF92BF92CA
:10060000CF92DF92EF92FF920F931F93CF93DF93DE
:100610005C016B014A01FC01828193810E94F2011D
:10062000EC018C819D81EE80FF80E816F90608F0D0
:1006300064C08C01015011090E191F098016910622
:1006400008F484010115110509F46BC08E159F058E
:1006500008F05CC02A813B812E193F092017310721
:1006600008F054C0E881F981EE0DFF1DA901B60123
:10067000CF010E9487078A819B819701281B390B34
:10068000200F311F8E199F098C0D9D1DA901BC01E2
:10069000888199810E948707C8018E0D9F1D6A81FC
:1006A0007B810E9473078E839F8378948A8981114E
:1006B00016C0F501A281B381E881F9818C819D8109
:1006C000E80FF91F80818C938C819D8101966A814E
:1006D0007B810E9473078C839D8381E08A8BC80194
:1006E000DF91CF911F910F91FF90EF90DF90CF900E
:1006F000BF90AF909F908F9008950A811B81080F43
:10070000191F015011090E191F0998CFF89428815B
:1007100039812E0D3F1DA801B601C9010E9487072E
:10072000BBCF00E010E0DBCF1F93CF93DF931F928E
:100730001F92CDB7DEB7182F8091BF209091C020B7
:10074000009709F11A3089F0198341E050E0BE01A9
:100750006F5F7F4F0E94FC0220E030E0C9010F90E4
:100760000F90DF91CF911F9108952DE02A8341E0F2
:1007700050E0BE016E5F7F4F0E94FC028091BF205F
:100780009091C020E1CF2FEF3FEFE8CFCF93DF93E1
:100790001F92CDB7DEB7698341E050E0BE016F5FC5
:1007A0007F4F0E94FC020F90DF91CF9108950F932D
:1007B0001F93CF93DF938B01EA01FC018281938128
:1007C0000E94F201FC01209779F1848595852685A8
:1007D00037858217930741F140E050E020E030E098
:1007E00005C06685778568177907C1F0A085B18552
:1007F000A80FB91F8C91D801A40FB51F8C938485C5
:1008000095850196628573850E9473078487958715
:100810002F5F3F4FA9012C173D0719F7C901DF9141
:10082000CF911F910F91089520E030E0F7CF809194
:10083000BF209091C020009781F041E050E066E237
:1008400070E20E94D703892B29F02091262030E006
:10085000C90108952EEF3FEFFBCF2FEF3FEFF8CF09
:10086000CF93DF931F92CDB7DEB7198241E050E0FE
:10087000BE016F5F7F4F0E94D70389810F90DF9188
:10088000CF910895FC01828193810E94F201FC01C5
:1008900084859585468557854817590740F42285F4
:1008A0003385240F351F281B390BC90108959A0180
:1008B000281B390BC9010895CF93DF93EB01FC018D
:1008C000828193810E94F201FC01848595858C0FC1
:1008D0009D1F628573850E9473070084F185E02D5A
:1008E000E80FF91F8081DF91CF910895492F50E0E3
:1008F000909350002091510030E024233523232B86
:10090000C9F398ED94BF8093400081E00895882357
:10091000A9F0809150008460809350008091510034
:1009200082FFFCCF85E08093430081E08093000448
:10093000809101048111FCCF81E008951092430061
:100940001092000481E008959091A200611105C009
:10095000809589238093A2000895982B9093A200FC
:10096000089581E0E8E7F0E081830895CF93DF9375
:10097000CDB7DEB72597CDBFDEBF462F89839A83DB
:10098000E62FF0E07096E80FF91FEC83FD83282F27
:100990003A815E2F6D8170E080E090E02596CDBFBA
:1009A000DEBFDF91CF910895CF93DF93CDB7DEB750
:1009B0002597CDBFDEBF49835A83E981FA81E20FD3
:1009C000F31F81E090E001C0880F6A95EAF7808309
:1009D0002596CDBFDEBFDF91CF910895CF93DF93F2
:1009E000CDB7DEB72597CDBFDEBF49835A83E981F6
:1009F000FA81E20FF31F81E090E001C0880F6A9551
:100A0000EAF786832596CDBFDEBFDF91CF910895AB
:100A1000CF93DF93CDB7DEB72597CDBFDEBF498338
:100A20005A83E981FA8181E090E0062E01C0880FA7
:100A30000A94EAF787832596CDBFDEBFDF91CF9179
:100A40000895CF93DF93CDB7DEB72597CDBFDEBF37
:100A500049835A836B837C838D83E981FA81808506
:100A600090E002C0959587956A95E2F780FD09C0F0
:100A700020E030E0C9012596CDBFDEBFDF91CF91E8
:100A800008952FEF3FEFF6CFCF93DF93CDB7DEB7CB
:100A90002597CDBFDEBF49835A836B837C838D83CB
:100AA000EC81FD818081886180832596CDBFDEBF8A
:100AB000DF91CF910895CF93DF93CDB7DEB7259720
:100AC000CDBFDEBF49835A836B837C838D83EC81EA
:100AD000FD81808110822596CDBFDEBFDF91CF9151
:100AE00008956F927F928F929F92AF92BF92CF9212
:100AF000DF92EF92FF920F93CF93DF93CDB7DEB7E4
:100B00002597CDBFDEBF6C0129833A834B835C837D
:100B10006D8389819A81642F803426E0920709F4DD
:100B20007AC0803636E0930709F47DC08038E6E06D
:100B30009E0709F480C0803AF6E09F07D9F0F601DD
:100B400015821682178210861186128613861486E5
:100B5000C6012596CDBFDEBFDF91CF910F91FF90EB
:100B6000EF90DF90CF90BF90AF909F908F907F904D
:100B70006F90089540E4642E4BE0742E812C5BE06E
:100B8000952E643060F5A62EB12CAA0CBB1CF8E2A1
:100B9000AF0EB11CA80CB91CF401E6A2F7A221818A
:100BA000287F236021832081207F202B2083F82C25
:100BB000092D612C712C482F89839A8321E030E024
:100BC0005A817C818D810E94D404F60185829682AF
:100BD00067827086F1860287A386B486B9CF6630B5
:100BE00008F0ADCFA62EB12CAA0CBB1C20E2A20EA1
:100BF000B11CA60CB71CF301E6A2F7A22181287F45
:100C0000236021832081207F202B2083F62C072D39
:100C1000812C912CD0CFB0E46B2EB8E07B2E812CB0
:100C200028E0922EAECFF0E46F2EF9E07F2E812CDB
:100C3000A9E09A2EA6CF70E4672E7AE0772E812C59
:100C4000EAE09E2E9ECFDC011596ED91FC91169761
:100C50003097D1F0618148ED5FEF4E1B5F0B1B9623
:100C60008D919C911C97840F951F97FD2DC0959594
:100C70008795049621E030E0082E01C0220F0A94E7
:100C8000EAF7262B218308951796ED91FC9118978A
:100C90003097C9F041811B968D919C911C978E1BBA
:100CA0009F0B9C012852310937FD10C035952795BF
:100CB0002C5F3F4F81E090E0022E01C0880F0A9424
:100CC000EAF7842B818308950196D1CF9C012752A6
:100CD0003109ECCFDC011596ED91FC911697309718
:100CE000D9F041811B968D919C911C978E1B9F0B77
:100CF0009C012852310937FD16C0359527952C5F88
:100D00003F4F81E090E0022E01C0880F0A94EAF77D
:100D100080958423818308951796ED91FC9118970F
:100D20003097F9F6F8CF9C0127523109E6CFCF93DF
:100D3000DF93EC01AB85BC851097A9F0E985FA85B6
:100D40002D913C911197AB014356510905C080A1EB
:100D500091A1841795072CF080A191A1281739073C
:100D6000B0F76D937C93DF91CF910895CF93DF938C
:100D7000CDB7DEB7C752D140CDBFDEBF81E092E034
:100D80000E94760461E082E090E00E94A40461E0A9
:100D900081E090E00E94A40461E084E090E00E9481
:100DA000A40480E8A82EB12CCC24C394D12CCC0E62
:100DB000DD1E20E8E22EF12C8E010F571F4F21E29D
:100DC00030EF40EA5AE060E876E0CE01805F9E4F67
:100DD0000E94350261E0CE01805F9E4F0E94770243
:100DE0008EE090E29F938F930E94900764E080E4EE
:100DF00096E00E94B604CD5DDE4F2883C352D140F9
:100E0000CC5DDE4F3883C452D140CB5DDE4F48838A
:100E1000C552D140CA5DDE4F5883C652D140C95D2C
:100E2000DE4F6883C752D14085E0FE01ED5DFE4F85
:100E3000DE01A25EBE4F01900D928A95E1F738EE79
:100E4000E32E33E0F32E06E010E0C25EDE4F288191
:100E5000CE51D140C15EDE4F3881CF51D140C05E0E
:100E6000DE4F4881C052D140CF5DDE4F5881C15224
:100E7000D140CE5DDE4F6881C252D140CE018F5F3E
:100E80009E4F0E947105CE018F5F9E4F0E942306E8
:100E900088E0809341060F900F9018E0109347066A
:100EA00064E670E0CE018F5F9E4F0E9497062FEFA1
:100EB00087EA91E6215080409040E1F700C00000B1
:100EC0001093470664EF71E0CE018F5F9E4F0E9442
:100ED00097062FEF87EA91E6215080409040E1F796
:100EE00000C00000DBCFAA1BBB1B51E107C0AA1F3B
:100EF000BB1FA617B70710F0A61BB70B881F991FBB
:100F00005A95A9F780959095BC01CD010895FB01F4
:100F1000DC0102C001900D9241505040D8F7089575
:100F2000CF93DF93CDB7DEB7FE0136966191719115
:100F3000AF018091C3209091C4200E94A207DF914D
:100F4000CF9108952F923F924F925F926F927F922E
:100F50008F929F92AF92BF92CF92DF92EF92FF92C9
:100F60000F931F93CF93DF93CDB7DEB72C97CDBFF1
:100F7000DEBF7C016B018A01FC011682178283812E
:100F800081FFC6C188248394912C8C0E9D1EF7018D
:100F90009381F60193FD859193FF81916F018823E1
:100FA00009F4B2C1853239F493FD859193FF8191A3
:100FB0006F01853229F4B70190E00E94B709E7CFAD
:100FC000512C312C20E02032A8F48B3261F028F42F
:100FD000803251F0833271F40BC08D3239F080339E
:100FE00049F4216028C02260246025C0286023C005
:100FF000206121C027FD27C0382F30533A3078F4C4
:1010000026FF06C0FAE05F9E300D1124532E13C058
:101010008AE0389E300D1124332E20620CC08E32AF
:1010200021F426FD71C1206406C08C3611F42068BD
:1010300002C0883641F4F60193FD859193FF8191BA
:101040006F018111C0CF982F9554933018F09052B2
:10105000933028F40C5F1F4FFFE3F9830DC08336F4
:1010600031F0833771F0833509F05EC023C0F80199
:10107000808189830E5F1F4F44244394512C540177
:1010800015C03801F2E06F0E711CF801A080B1802C
:1010900026FF03C0652D70E002C06FEF7FEFC50132
:1010A0002C870E94AC092C0183012C856FE7262E2A
:1010B000222218C03801F2E06F0E711CF801A080E6
:1010C000B18026FF03C0652D70E002C06FEF7FEF97
:1010D000C5012C870E94A1092C012C8550E8252EE2
:1010E000222A830123FC1CC006C0B70180E290E0E5
:1010F0000E94B7093A94832D90E048165906A8F348
:101100000FC0F50127FC859127FE81915F01B70192
:1011100090E00E94B70931103A94F1E04F1A51085B
:101120004114510471F7EDC0843611F0893641F550
:10113000F80127FF07C060817181828193810C5F74
:101140001F4F08C060817181882777FD8095982F97
:101150000E5F1F4F4FE6B42EB22297FF09C0909545
:101160008095709561957F4F8F4F9F4FF0E8BF2A14
:101170002AE030E0A4010E94E309A82EA81843C089
:10118000853731F43FEEB32EB2222AE030E024C09E
:1011900099EFB92EB2228F36B9F020F4883509F0D4
:1011A000B3C00DC0803721F0883709F0ADC002C050
:1011B00020E1B22AB4FE0BC084E0B82A08C024FFA4
:1011C00009C0E6E0BE2A06C028E030E005C020E104
:1011D00030E002C020E132E0F801B7FE07C06081D4
:1011E0007181828193810C5F1F4F06C06081718184
:1011F00080E090E00E5F1F4FA4010E94E309A82E3B
:10120000A818FFE7BF22B6FE0BC02B2D2E7FA5141A
:1012100050F4B4FE0AC0B2FC08C02B2D2E7E05C0CF
:101220007A2C2B2D03C07A2C01C0752C24FF0DC005
:10123000FE01EA0DF11D8081803311F4297E09C081
:1012400022FF06C07394739404C0822F867809F03D
:10125000739423FD14C020FF0FC05A2C731460F444
:10126000530C5718732C08C0B70180E290E02C870C
:101270000E94B70973942C857314B0F304C07314DF
:1012800010F4371801C0312C24FF12C0B70180E3DD
:1012900090E02C870E94B7092C8522FF1EC021FFF9
:1012A00003C088E590E002C088E790E0B7010CC079
:1012B000822F867891F021FD02C080E201C08BE28E
:1012C00027FD8DE2B70190E00E94B70906C0B70183
:1012D00080E390E00E94B7095A94A514C0F3AA9441
:1012E000F401EA0DF11DB701808190E00E94B70979
:1012F000A110F5CF06C0B70180E290E00E94B709C7
:101300003A943110F8CF43CEF7012681378102C0DD
:101310002FEF3FEFC9012C96CDBFDEBFDF91CF91FC
:101320001F910F91FF90EF90DF90CF90BF90AF9003
:101330009F908F907F906F905F904F903F902F90F5
:101340000895FC010590615070400110D8F7809518
:1013500090958E0F9F1F0895FC0161507040019081
:101360000110D8F7809590958E0F9F1F08950F93C9
:101370001F93CF93DF938C01EB018B8181FD03C021
:101380000FEF1FEF1AC082FF0DC02E813F818C81AD
:101390009D812817390764F4E881F9810193E88376
:1013A000F98306C0E885F985802F1995892B41F7C7
:1013B0008E819F8101968E839F83C801DF91CF919B
:1013C0001F910F910895FA01AA27283051F1203179
:1013D00081F1E8946F936E7F6E5F7F4F8F4F9F4FC9
:1013E000AF4FB1E03ED0B4E03CD0670F781F891F0B
:1013F0009A1FA11D680F791F8A1F911DA11D6A0FD9
:10140000711D811D911DA11D20D009F468943F918B
:101410002AE0269F11243019305D3193DEF6CF018A
:101420000895462F4770405D4193B3E00FD0C9F750
:10143000F6CF462F4F70405D4A3318F0495D31FDBD
:101440004052419302D0A9F7EACFB4E0A695979510
:10145000879577956795BA95C9F7009761057105E6
:1014600008959B01AC010A2E069457954795379530
:101470002795BA95C9F7620F731F841F951FA01D8A
:061480000895F894FFCF6F
:1014860000000003000000009403170400004D65EF
:101496006E69616C2050574D20746573742E2E2E24
:0614A6002E2E0A3E20007C
:00000001FF
