:100000000C94FA000C941F010C941F010C941F0116
:100010000C941F010C941F010C941F010C941F01E0
:100020000C941F010C941F010C941F010C941F01D0
:100030000C941F010C941F010C941F010C941F01C0
:100040000C941F010C941F010C941F010C941F01B0
:100050000C941F010C941F010C941F010C941F01A0
:100060000C941F010C941F010C941F010C941F0190
:100070000C941F010C941F010C941F010C941F0180
:100080000C941F010C941F010C941F010C941F0170
:100090000C941F010C941F010C941F010C941F0160
:1000A0000C941F010C941F010C941F010C941F0150
:1000B0000C941F010C941F010C941F010C941F0140
:1000C0000C941F010C941F010C941F010C941F0130
:1000D0000C941F010C941F010C941F010C941F0120
:1000E0000C941F010C941F010C941F010C941F0110
:1000F0000C941F010C941F010C941F010C941F0100
:100100000C941F010C941F010C941F010C941F01EF
:100110000C941F010C941F010C941F010C941F01DF
:100120000C941F010C941F010C941F010C941F01CF
:100130000C941F010C941F010C941F010C941F01BF
:100140000C941F010C941F010C941F010C941F01AF
:100150000C941F010C941F010C941F010C941F019F
:100160000C941F010C941F010C941F010C941F018F
:100170000C941F010C941F010C941F010C941F017F
:100180000C941F010C941F010C941F010C941F016F
:100190000C941F010C941F010C941F010C941F015F
:1001A0000C941F010C941F010C941F010C941F014F
:1001B0000C941F010C941F010C941F010C941F013F
:1001C0000C941F010C941F010C941F010C941F012F
:1001D0000C941F010C941F010C941F010C948A01B4
:1001E0000C94BF010C941F010C941F010C941F016F
:1001F0000C941F0111241FBECFEFDFE3DEBFCDBF84
:1002000000E00CBF18BE19BE1ABE1BBE10E2A0E073
:10021000B0E2EAE1FCE000E00BBF02C007900D9203
:10022000A231B107D9F710E2A2E1B0E201C01D92FC
:10023000A232B107E1F70E9421010C940B060C9445
:100240000000CF92DF92EF92FF920F931F93DF9304
:10025000CF93CDB7DEB7EA97CDBFDEBF1092400097
:100260008091A2008760E0EAF0E08283789488E0E1
:100270008093A00682E190E260EA7BE040E855E2EC
:100280000E948B0280E092E00E94F0027E010894BE
:10029000E11CF11C8E01075F1F4F80E0C82E80E239
:1002A000D82E8FE39DE0A3E081509040A040E1F77D
:1002B00000C0000080E092E0B7010E940203ADB7E9
:1002C000BEB71C97ADBFBEBFEDB7FEB73196119656
:1002D0000D931C931297C282D38289819A81848361
:1002E00095838B819C81868397838D819E81808776
:1002F00091878F819885828793870E9437038DB776
:100300009EB70C968DBF9EBF82E190E2B8010E941D
:10031000DB02C7CF1F920F920FB60F9208B60F9253
:1003200009B60F920BB60F92112418BE19BE1BBE50
:100330002F933F934F935F936F937F938F939F93ED
:10034000AF93BF93EF93FF9382E190E20E9440024C
:10035000FF91EF91BF91AF919F918F917F916F919D
:100360005F914F913F912F910F900BBE0F9009BE5F
:100370000F9008BE0F900FBE0F901F9018951F9200
:100380000F920FB60F9208B60F9209B60F920BB6E6
:100390000F92112418BE19BE1BBE2F933F934F938B
:1003A0005F936F937F938F939F93AF93BF93EF93DD
:1003B000FF9382E190E20E945602FF91EF91BF917C
:1003C000AF919F918F917F916F915F914F913F91ED
:1003D0002F910F900BBE0F9009BE0F9008BE0F908B
:1003E0000FBE0F901F901895FC01608371834283AC
:1003F000538315861486178616860895FC0162833A
:1004000073830895FC01968527859F5F937081E033
:10041000921709F480E00895FC01968527859F5F77
:10042000937081E0921711F480E008959685DF01C2
:10043000A90FB11D18966C939F5F93709687A0814A
:10044000B18113969C9113979C7F2281922B1396D6
:100450009C9313970895FC012485958581E02917C5
:1004600009F480E00895FC018585DF01A80FB11D26
:1004700014968C91149795859F5F93709587089536
:10048000FC0184858F5F83702585A081B1819C915B
:10049000821751F02485DF01A20FB11D14969C93A1
:1004A0001497848781E0089580E00895CF93DF93C7
:1004B000FC0187859685A081B181981741F4139638
:1004C0008C9113978C7F13968C9313970AC0878512
:1004D000EF01C80FD11D88858C9387858F5F83704E
:1004E0008787DF91CF910895FC0170FF03C084815D
:1004F000816002C084818E7F848360830895FC01C3
:10050000848180FF04C0208130E0316002C02081FE
:1005100030E0C9010895EF92FF920F931F93CF939C
:10052000DF93EC018B017A0141E050E00E94F4017D
:10053000E881F98183E08583E881F98183818F7C7B
:100540008061838380E0E81686E9F80659F4E88143
:10055000F98184818460848386E1F801868380EE5A
:10056000878309C0F0E8EF16F5E2FF0621F48CE07E
:10057000F80186831782E881F98184818061848310
:10058000E881F981848188608483DF91CF911F9114
:100590000F91FF90EF9008951F93CF93DF93EC019D
:1005A000162FCE01612F0E940C028823D1F3DF9118
:1005B000CF911F9108950F931F93CF93DF93EC0179
:1005C000062F172F03C0CE010E94CC02F8016191C3
:1005D0008F016623C1F7DF91CF911F910F9108958D
:1005E000FC0180818160808381818183828180613F
:1005F00082838381806C838384818760848381E0AC
:1006000080A30895FC01DB0180818C638083868157
:1006100080FFFDCF808991898D939C93119786816E
:1006200081608683868181FFFDCF828993891296BE
:100630008D939C931397868182608683868182FF47
:10064000FDCF8489958914968D939C931597868107
:1006500084608683868183FFFDCF8689978916967D
:100660008D939C93179786818860868308950F9356
:100670001F93DF93CF93CDB7DEB72E97CDBFDEBFED
:100680000E891F8986E08C8309831A838FEF9FE789
:100690008D839E839E01265E3F4FCE010196688D1D
:1006A000798DA9010E946103EF81F885E00FF11FA8
:1006B00010822E96CDBFDEBFCF91DF911F910F919B
:1006C00008952F923F924F925F926F927F928F92F6
:1006D0009F92AF92BF92CF92DF92EF92FF920F93D1
:1006E0001F93DF93CF93CDB7DEB72C97CDBFDEBF7F
:1006F0006C011B018A01FC0116821782838181FF34
:10070000D1C12E010894411C511CF6019381F101C5
:1007100093FD859193FF81911F01882309F4BEC148
:10072000853239F493FD859193FF81911F018532C4
:1007300029F490E0B6010E948105E7CFEE24FF2462
:1007400020E02032B0F48B3269F08C3228F4803211
:1007500051F0833271F40BC08D3239F0803349F49B
:1007600021602CC02260246029C0286027C020613D
:1007700025C027FD2CC0382F30533A3098F426FF7F
:1007800008C08E2D880FE82EEE0CEE0CE80EE30E5E
:1007900015C08F2D880FF82EFF0CFF0CF80EF30EEE
:1007A00020620CC08E3221F426FD78C1206406C080
:1007B0008C3611F4206802C0883649F4F10193FDAB
:1007C000859193FF81911F01882309F0BACF982F5B
:1007D0009554933018F09052933028F40C5F1F4FCB
:1007E000FFE3F9830DC0833631F0833771F0833531
:1007F00009F060C022C0F801808189830E5F1F4F1D
:10080000420171E0A72EB12C16C062E0662E712C59
:10081000600E711EF8018080918026FF03C06E2D4E
:1008200070E002C06FEF7FEFC4012C870E94760555
:100830005C0183012C852F7717C052E0652E712C47
:10084000600E711EF8018080918026FF03C06E2D1E
:1008500070E002C06FEF7FEFC4012C870E946B0530
:100860005C012C852068830123FD20C008C080E244
:1008700090E0B6012C870E948105FA942C858F2D7B
:1008800090E0A816B90698F311C0F40127FD8591F0
:1008900027FF81914F0190E0B6012C870E948105CE
:1008A0002C85F110FA940894A108B108A114B104A0
:1008B00061F7F1C0843611F0893649F527FF08C089
:1008C000F80160817181828193810C5F1F4F09C0A3
:1008D000F80160817181882777FD8095982F0E5FE0
:1008E0001F4F4FE6B42EB22297FF09C09095809516
:1008F000709561957F4F8F4F9F4FF0E8BF2AA201FF
:100900002AE030E00E94AD05782E741845C0853786
:1009100031F43FEEB32EB2222AE030E025C099EF49
:10092000B92EB2228F36C1F0803720F4883509F015
:10093000B5C00DC0803721F0883709F0AFC002C0C4
:1009400020E1B22AB4FE0BC084E0B82A08C0B4FE8D
:1009500009C0E6E0BE2A06C028E030E005C020E17C
:1009600030E002C020E132E0B7FE08C0F80160814B
:100970007181828193810C5F1F4F07C0F8016081F4
:10098000718180E090E00E5F1F4FA2010E94AD05D3
:10099000782E7418FFE7BF22B6FE0BC02EEFB222EE
:1009A0007E1438F4B4FE07C0B2FC05C08FEEB82246
:1009B00002C0A72C01C0AE2C8B2D90E0B4FE0DC060
:1009C000FE01E70DF11D2081203319F4E9EEBE226E
:1009D00009C0A394B2FE06C004C086789070009748
:1009E00009F0A3948B2C9924B3FC14C0B0FE0FC063
:1009F000AF1428F4E72CEF0CEA18AF2C08C0E72C52
:100A000006C080E290E0B6010E948105A394AF1475
:100A1000C0F304C0AF1410F4FA1801C0FF2484FE20
:100A20000FC080E390E0B6010E94810582FE1FC0E6
:100A300081FE03C088E590E010C088E790E00DC01B
:100A4000C40186789070009791F081FC02C080E22A
:100A500001C08BE2B7FC8DE290E0B6010E948105F7
:100A600006C080E390E0B6010E948105EA947E14FE
:100A7000C0F37A94F201E70DF11D808190E0B60198
:100A80000E9481057720A9F706C080E290E0B601B8
:100A90000E948105FA94FF20C1F737CEF601268126
:100AA000378102C02FEF3FEFC9012C96CDBFDEBFCB
:100AB000CF91DF911F910F91FF90EF90DF90CF903A
:100AC000BF90AF909F908F907F906F905F904F906E
:100AD0003F902F900895FC010590615070400110E7
:100AE000D8F7809590958E0F9F1F0895FC01615057
:100AF000704001900110D8F7809590958E0F9F1F40
:100B000008950F931F93CF93DF938C01EB018B819B
:100B100081FF1BC082FF0DC02E813F818C819D8192
:100B20002817390764F4E881F9810193E883F98390
:100B300006C0E885F985802F1995009731F48E81DC
:100B40009F8101968E839F8302C00FEF1FEFC80124
:100B5000DF91CF911F910F910895FA01AA272830B4
:100B600051F1203181F1E8946F936E7F6E5F7F4F7A
:100B70008F4F9F4FAF4FB1E03ED0B4E03CD0670FF6
:100B8000781F891F9A1FA11D680F791F8A1F911D49
:100B9000A11D6A0F711D811D911DA11D20D009F499
:100BA00068943F912AE0269F11243019305D3193DB
:100BB000DEF6CF010895462F4770405D4193B3E0C4
:100BC0000FD0C9F7F6CF462F4F70405D4A3318F06B
:100BD000495D31FD4052419302D0A9F7EACFB4E01C
:100BE000A6959795879577956795BA95C9F70097D4
:100BF0006105710508959B01AC010A2E0694579575
:100C0000479537952795BA95C9F7620F731F841FCB
:0A0C1000951FA01D0895F894FFCF72
:100C1A002534642025346420253464202534640A6C
:020C2A000D00BB
:00000001FF
