:100000000C94FA000C9420010C9420010C94200113
:100010000C9420010C9420010C9420010C942001DC
:100020000C9420010C9420010C9420010C942001CC
:100030000C9420010C9420010C9420010C942001BC
:100040000C9420010C9420010C9420010C942001AC
:100050000C9420010C9420010C9420010C9420019C
:100060000C945E030C9420010C9420010C9420014C
:100070000C9420010C9420010C9420010C9420017C
:100080000C9420010C9420010C9420010C9420016C
:100090000C9420010C9420010C9420010C9420015C
:1000A0000C9420010C9420010C9483050C942001E5
:1000B0000C9420010C9420010C9420010C94360225
:1000C0000C9420010C9420010C9420010C9420012C
:1000D0000C9420010C94C7020C9420010C94200174
:1000E0000C9420010C9479020C947F010C94200153
:1000F0000C942B010C9420010C9420010C942001F1
:100100000C9420010C9420010C9420010C942001EB
:100110000C9420010C9420010C9420010C942001DB
:100120000C9420010C9420010C9418050C942001CF
:100130000C9420010C9420010C9420010C942001BB
:100140000C9420010C9420010C9420010C942001AB
:100150000C9420010C9420010C9420010C94AC030D
:100160000C949C040C9420010C9448040C942001E1
:100170000C9420010C9420010C9420010C9420017B
:100180000C9420010C9420010C94FB010C94200190
:100190000C94E0020C9420010C9420010C9420019A
:1001A0000C9420010C9420010C9420010C9420014B
:1001B0000C941B030C9420010C9420010C9420013E
:1001C0000C9420010C9420010C9420010C9420012B
:1001D0000C9420010C9420010C94FA030C94170643
:1001E0000C9420010C94EE050C9420010C94200139
:1001F0000C94200111241FBECFEFDFE3DEBFCDBF83
:1002000000E00CBF18BE19BE1ABE1BBE1AE2A0E069
:10021000B0E2E8EEF1E500E00BBF02C007900D92FE
:10022000AC3FB107D9F71BBE16E3ACEFBAE201C091
:100230001D92A635B107E1F70E9477210C94F228B0
:100240000C940000E091F82BF091F92B199587E1BF
:100250009BE20C94D8171F920F920FB60F921124A5
:1002600008B60F9218BE09B60F9219BE0BB60F92C0
:100270001BBE2F933F935F936F937F938F939F93B7
:10028000AF93BF93EF93FF938091592C90915A2C89
:1002900020915B2C30915C2C8217930769F121E04F
:1002A0002093672CE091552CF091562CE80FF91F04
:1002B00020812093A00A01966091572C7091582CB0
:1002C0000E94F5258093592C90935A2CFF91EF9121
:1002D000BF91AF919F918F917F916F915F913F916E
:1002E0002F910F900BBE0F9009BE0F9008BE0F907C
:1002F0000FBE0F901F9018951092672CE7CF1F929A
:100300000F920FB60F92112408B60F9218BE09B6BD
:100310000F9219BE0BB60F921BBE2F933F934F93B4
:100320005F936F937F938F939F93AF93BF93EF935D
:10033000FF938091612C9091622C0097D1F1AC01D8
:10034000415051092091632C3091642C24173507BA
:1003500009F445C08091A00AE0915D2CF0915E2CDB
:10036000E20FF31F80838091632C9091642C01969F
:1003700060915F2C7091602C0E94F5258093632C16
:100380009093642CFF91EF91BF91AF919F918F91CA
:100390007F916F915F914F913F912F910F900BBE85
:1003A0000F9009BE0F9008BE0F900FBE0F901F90C8
:1003B000189560915F2C7091602CAB0141505109F0
:1003C0002091632C3091642C2417350719F601967F
:1003D0000E94F5258093612C9093622CBBCF609195
:1003E0005F2C7091602C01960E94F5258093612C02
:1003F0009093622CAFCF1F920F920FB60F921124E1
:1004000008B60F9218BE09B60F9219BE0BB60F921E
:100410001BBE8F939F93AF93BF93EF93FF93E09196
:100420007E2CF0917F2CA381B48190961D921C921A
:100430009197A081B18118968C919281892329F09E
:100440000380F481E02D83E08083FF91EF91BF91E1
:10045000AF919F918F910F900BBE0F9009BE0F909F
:1004600008BE0F900FBE0F901F9018951F920F920D
:100470000FB60F92112408B60F9218BE09B60F924C
:1004800019BE0BB60F921BBE2F933F934F935F93F2
:100490006F937F938F939F93AF93BF93EF93FF934C
:1004A000E091D830F091D930A381B4811C92A08121
:1004B000B18118968C919281892321F00580F68173
:1004C000E02D1995FF91EF91BF91AF919F918F9181
:1004D0007F916F915F914F913F912F910F900BBE44
:1004E0000F9009BE0F9008BE0F900FBE0F901F9087
:1004F00018951F920F920FB60F92112408B60F9203
:1005000018BE0BB60F921BBE8F939F93EF93FF9372
:1005100080911A3190911931891758F49091C30A3A
:10052000E0911731F0911831E80FF11D908380911F
:100530001A318F5F80931A31909116318917E8F044
:10054000909119318917B0F0E0911B31F0911C3175
:10055000158210921B3110921C31FF91EF919F91E7
:100560008F910F900BBE0F9008BE0F900FBE0F9093
:100570001F9018951092C30AF0CFE0911431F091BA
:100580001531E80FF11D80818093C30AE6CF1F92D9
:100590000F920FB60F92112408B60F9218BE109248
:1005A000460AE091F82BF091F92B199580914406B9
:1005B000887F8093440680EB92E20E942426FFCF3E
:1005C0001F920F920FB60F92112408B60F9218BE09
:1005D00009B60F9219BE0BB60F921BBE8F939F9355
:1005E000AF93BF93EF93FF93E091FE2BF091FF2B1E
:1005F000A381B48190961D921C929197A081B181A4
:1006000018968C919281892329F00380F481E02D42
:1006100083E08083FF91EF91BF91AF919F918F9184
:100620000F900BBE0F9009BE0F9008BE0F900FBE2B
:100630000F901F9018951F920F920FB60F921124D2
:1006400008B60F9218BE09B60F9219BE0BB60F92DC
:100650001BBE2F933F934F935F936F937F938F9323
:100660009F93AF93BF93EF93FF93E091CB2BF091C8
:10067000CC2BA381B4811C92A081B18118968C915E
:100680009281892321F00580F681E02D1995FF9153
:10069000EF91BF91AF919F918F917F916F915F91FA
:1006A0004F913F912F910F900BBE0F9009BE0F906D
:1006B00008BE0F900FBE0F901F9018951F920F92BB
:1006C0000FB60F92112408B60F9218BE0BB60F92F8
:1006D0001BBE8F939F93EF93FF938091492C909132
:1006E000482C891758F49091C308E091462CF0915A
:1006F000472CE80FF11D90838091492C8F5F8093E8
:10070000492C9091452C8917E8F09091482C891735
:10071000B0F0E0914A2CF0914B2C158210924A2CAB
:1007200010924B2CFF91EF919F918F910F900BBEE8
:100730000F9008BE0F900FBE0F901F90189510924B
:10074000C308F0CFE091432CF091442CE80FF11D49
:1007500080818093C308E6CF1F920F920FB60F924D
:10076000112408B60F9218BE0BB60F921BBE8F93C2
:100770009F93EF93FF938091882B9091872B8917FC
:1007800058F49091C309E091852BF091862BE80FE6
:10079000F11D90838091882B8F5F8093882B90919F
:1007A000842B8917E8F09091872B8917B0F0E0919E
:1007B000892BF0918A2B15821092892B10928A2B0B
:1007C000FF91EF919F918F910F900BBE0F9008BEFC
:1007D0000F900FBE0F901F9018951092C309F0CF85
:1007E000E091822BF091832BE80FF11D80818093A3
:1007F000C309E6CF1F920F920FB60F92112408B6CD
:100800000F9218BE0BB60F921BBE8F939F93EF9360
:10081000FF938091522C9091512C891758F490910C
:10082000C30BE0914F2CF091502CE80FF11D9083F9
:100830008091522C8F5F8093522C90914E2C89176F
:10084000E8F09091512C8917B0F0E091532CF09181
:10085000542C15821092532C1092542CFF91EF912E
:100860009F918F910F900BBE0F9008BE0F900FBEFF
:100870000F901F9018951092C30BF0CFE0914C2C65
:10088000F0914D2CE80FF11D80818093C30BE6CFD2
:100890001F920F920FB60F92112408B60F9218BE36
:1008A00009B60F9219BE0BB60F921BBE2F933F9342
:1008B0005F936F937F938F939F93AF93BF93EF93C8
:1008C000FF938091C7309091C8302091C93030910A
:1008D000CA308217930769F121E02093D530E09167
:1008E000C330F091C430E80FF91F20812093A00994
:1008F00001966091C5307091C6300E94F5258093B5
:10090000C7309093C830FF91EF91BF91AF919F9105
:100910008F917F916F915F913F912F910F900BBEBF
:100920000F9009BE0F9008BE0F900FBE0F901F9042
:1009300018951092D530E7CF1F920F920FB60F92F5
:10094000112408B60F9218BE09B60F9219BE0BB645
:100950000F921BBE2F933F934F935F936F937F93A1
:100960008F939F93AF93BF93EF93FF938091CF307B
:100970009091D0300097D1F1AC01415051092091B4
:10098000D1303091D2302417350709F445C0809119
:10099000A009E091CB30F091CC30E20FF31F8083BF
:1009A0008091D1309091D23001966091CD3070918C
:1009B000CE300E94F5258093D1309093D230FF91B4
:1009C000EF91BF91AF919F918F917F916F915F91C7
:1009D0004F913F912F910F900BBE0F9009BE0F903A
:1009E00008BE0F900FBE0F901F9018956091CD30EC
:1009F0007091CE30AB01415051092091D1303091EE
:100A0000D2302417350719F601960E94F5258093F8
:100A1000CF309093D030BBCF6091CD307091CE303D
:100A200001960E94F5258093CF309093D030AFCFC0
:100A30001F920F920FB60F92112408B60F9218BE94
:100A40008F939F938091042C9091052C97FD29C042
:100A5000809124029091250280930C2C90930D2C70
:100A600080912C0290912D0280930E2C90930F2C4C
:100A700080913402909135028093102C9093112C28
:100A800080913C0290913D028093122C9093132C04
:100A90009F918F910F9008BE0F900FBE0F901F90E7
:100AA000189580912402909125028093042C9093B4
:100AB000052C80912C0290912D028093062C90930E
:100AC000072C80913402909135028093082C9093EA
:100AD000092C80913C0290913D0280930A2C9093C6
:100AE0000B2C80E28093210288E28093290280E32C
:100AF0008093310288E380933902809100028C63F5
:100B000080930002C5CF1F920F920FB60F9211244F
:100B100008B60F9218BE8F939F9380914E2B9091A1
:100B20004F2B97FD29C080916402909165028093BC
:100B3000562B9093572B80916C0290916D0280936D
:100B4000582B9093592B8091740290917502809349
:100B50005A2B90935B2B80917C0290917D02809325
:100B60005C2B90935D2B9F918F910F9008BE0F90FF
:100B70000FBE0F901F9018958091640290916502AE
:100B800080934E2B90934F2B80916C0290916D022D
:100B90008093502B9093512B809174029091750209
:100BA0008093522B9093532B80917C0290917D02E5
:100BB0008093542B9093552B80E28093610288E2BE
:100BC0008093690280E38093710288E380937902C5
:100BD000809140028C6380934002C5CF1F920F9298
:100BE0000FB60F92112408B60F9218BE0BB60F92D3
:100BF0001BBE8F93EF93FF9380910031873058F4A1
:100C0000E0910031EF5FE0930031F0E0E051FF4C04
:100C100080818093A00BFF91EF918F910F900BBE7D
:100C20000F9008BE0F900FBE0F901F9018951F9247
:100C30000F920FB60F92112408B60F9218BE09B684
:100C40000F9219BE0BB60F921BBE8F939F93AF935B
:100C5000BF93EF93FF93809101319091A00BE82F08
:100C6000F0E0E051FF4C90878F5F809301318091DD
:100C70000131883088F0E0910231F0910331118A1E
:100C8000A481B58181E090E0068002C0880F991FA1
:100C90000A94E2F715968C93FF91EF91BF91AF9173
:100CA0009F918F910F900BBE0F9009BE0F9008BEC1
:100CB0000F900FBE0F901F901895CF93DF93CDB775
:100CC000DEB7CA56D140CDBFDEBF88248394912CB5
:100CD0008C0E9D1E80E4F40111928A95E9F795EA45
:100CE00099833FE33A8322E02B8377E07C8361E0C2
:100CF0006E8383EB8F8387EE88875FE0598740E1BF
:100D00004B878EE38C879D878E87E6E0EF87788B15
:100D10006A8B63ED6B8B67E46C8B5D8B4F8B888F7D
:100D2000998F3A8F32E23B8F75E07C8F63E06D8F55
:100D30002E8F3FE83F8F39EF38A354E059A34AEC98
:100D40004DA331EF3EA39FA388A786E289A77AA788
:100D50006BA72CA78FEE8DA789E58EA75FA74BAB5E
:100D60003CAB90E4A92EB12C21ECC22ED12CCC0EA0
:100D7000DD1E30E4E32EF12C8E010F5F1E4F21E2C9
:100D800030EF40EA5AE060E876E0CE01815B9E4FAA
:100D90000E940E1060E0CE01815B9E4F0E945010B9
:100DA00041E4C42ED12CCC0EDD1E8E010F571F4FF7
:100DB00023E130EC40EA59E060E676E0CE018F5B5B
:100DC0009E4F0E940E1060E0CE018F5B9E4F0E94EE
:100DD000501048E150E0B401CE018F5B9E4F0E945D
:100DE000D510FFEF29EF80E0F15020408040E1F77F
:100DF00000C000004CE150E0BE01675E7F4FCE01B5
:100E00008F5B9E4F0E94D5109FEFE9EFF0E091506D
:100E1000E040F040E1F700C0000051E4C52ED12CC5
:100E2000CC0EDD1E8E010F571F4F21E230EF40EA3E
:100E300059E060E676E0CE01835A9E4F0E940E1084
:100E40008EE0FE01E35AFE4FDE01AF5BBE4F019024
:100E50000D928A95E1F7CE018F5B9E4F0E941B1287
:100E6000AC01B401CE018F5B9E4F0E94B01140E4F3
:100E700050E0B401CE01815B9E4F0E94B0119927D2
:100E8000AC01B401CE018F5B9E4F0E94D51040E4AF
:100E900050E0B401CE018F5B9E4F0E94B0119927A4
:100EA000AC01B401CE01815B9E4F0E94D510DFCF13
:100EB0000C943D0F3F924F925F926F927F928F9270
:100EC0009F92AF92BF92CF92DF92EF92FF920F93D9
:100ED0001F93CF93DF93CDB7DEB7CF56D109CDBFE8
:100EE000DEBF382E2B01B901A6960EAF1FAFA69715
:100EF000A896EEAEFFAEA897AA96CEAEDFAEAA97A2
:100F00003501AC968EAE9FAEAC971092993110928F
:100F1000A1311092A2311092D4311092D531A09209
:100F20009C31B0929D31E091BD31F091BE31108283
:100F30001F928F9380E096E29F938F93AD964FAF71
:100F4000AD97AE965FAFAE97AF962FAFAF97E096E7
:100F50007FAFE0970E9412268DE296E20E9424263F
:100F6000C12C90E2D92E2FE2E22EF12CAD964FAD9E
:100F7000AD97AE965FADAE978A0120E030E147E0D5
:100F800050E0AF966FADAF97E0967FADE097C201AE
:100F90000E94E71285E596E20E94242606E120E001
:100FA00030E243E069E370E2C2010E9401130F9056
:100FB0000F900F900F9082E0381649F0831510F5CE
:100FC000F3E03F1609F4BEC184E038121FC028E5E3
:100FD00037E040E05BE06FE180E297E00E9451166D
:100FE000288B398B4A8B5B8B6C8B7D8B8E8B9F8B8D
:100FF00088E0FE017096A4ECB1E301900D928A9511
:10100000E1F704C0E1E03E1609F49CC11092C13141
:101010008BE796E20E94242660E072E0CE014896BB
:101020000E944E1D83E1FE017896A6EDB1E301908A
:101030000D928A95E1F760E472E0CE0148960E9435
:101040004E1D83E1FE017896ABE7B1E301900D926E
:101050008A95E1F78FE996E20E9424264091FF31BC
:101060005091003261E086ED91E30E94801D409135
:10107000FF31509100324E5F5F4F62E086ED91E3A9
:101080000E94801D4091FF31509100324C5F5F4FB4
:1010900063E086ED91E30E94801D4091FF31509105
:1010A00000324A5F5F4F64E086ED91E30E94801D4D
:1010B0004091FF3150910032485F5F4F65E086ED0F
:1010C00091E30E94801D4091FF3150910032465FB4
:1010D0005F4F66E086ED91E30E94801D8DEC96E205
:1010E0000E942426409162315091633166E08BE783
:1010F00091E30E94801D409192315091933167E0BD
:101100008BE791E30E94801D8FEF96E20E942426D8
:101110008090643190906531A090BF31B090C03123
:10112000C0904F31D090503164E080E696E00E944C
:1011300051142BA73CA74DA75EA76FA785E0FE0122
:10114000BB96DE011B9601900D928A95E1F71F92E6
:101150001F92EB84FC840D851E852F8540EA5BE0A1
:1011600060EA76E0CE01C0960E94D31E82E1FE01C5
:10117000F096A9EEB1E301900D928A95E1F789E32B
:1011800097E20E942426C0909431D0909531E0904F
:10119000B631F090B73100E210E0930140EC58E036
:1011A00060E476E0CE018E5B9F4F0E94FA1783E1E8
:1011B000FE01EE5BFF4FA3EAB1E301900D928A9529
:1011C000E1F781E697E20E942426C090CE31D090CC
:1011D000CF31E090C231F090C331930140EC59E03F
:1011E00060E676E0CE018E5B9F4F0E94FA1783E1A6
:1011F000FE01EE5BFF4FA8E6B1E301900D928A95E8
:10120000E1F787E897E20E94242665E080E696E011
:101210000E9451142BA73CA74DA75EA76FA785E09E
:10122000FE01BB96DE01169601900D928A95E1F7BC
:1012300060E080E696E00E9451142BA73CA74DA7E2
:101240005EA76FA785E0FE01BB96DE0111960190B7
:101250000D928A95E1F780E48F931F9280E4882EA7
:101260008BE0982EA12CCE80DF80E884F9840A855B
:1012700029813A814B815C816D81CE018B5A9F4FD0
:101280000E94971A8FE0FE01EB5AFF4FA1E5B1E3F0
:1012900001900D928A95E1F785EB97E20E94242652
:1012A0004091FB315091FC316091D0317091D1313E
:1012B00081E00E943E0E8091B8319091B931AC9698
:1012C000EEADFFADAC978083918380919F3190917B
:1012D000A031AA96EEADFFADAA9780839183E091ED
:1012E000D231F091D331308280916031909161316F
:1012F000A696EEADFFADA697808391838091FD31D8
:101300009091FE31A896EEADFFADA89780839183B2
:101310000F900F900F900F90C159DF4FCDBFDEBFE0
:10132000DF91CF911F910F91FF90EF90DF90CF90C1
:10133000BF90AF909F908F907F906F905F904F90F5
:101340003F90089528E537E040E05BE06FE344CE4E
:1013500081E00C94410F81E00C94600FCF93DF93F8
:1013600089EE91E30E94911F86ED91E30E94941D06
:101370008BE791E30E94941D83EA91E30E943A185F
:1013800088E691E30E943A18C0919731D091983144
:1013900084EC91E30E944B17888386ED91E30E94D1
:1013A0004A1E8823D1F38BE791E30E944A1E8823CB
:1013B000D1F383EA91E30E94D7188823D1F388E61A
:1013C00091E30E94D7188823D1F389EE91E30E941C
:1013D000F51F8823D1F3F894C0919A31D0919B31B5
:1013E00081E591E30E94A31B88839983E0919C315E
:1013F000F0919D3180A191A1E091CC31F091CD315E
:10140000808391837894E091B631F091B7318081F7
:101410009181A281B38180938E3190938F31A0937B
:101420009031B093913183EA91E30E94DC188111ED
:1014300028C0E091BD31F091BE318081806280830F
:1014400080919E318F5F80939E3188E691E30E9468
:10145000DC18811120C0E091BD31F091BE31808156
:10146000806280838091BC318F5F8093BC3189EE34
:1014700091E30E94FA1F81E080939631DF91CF9132
:10148000089583EA91E30E94B11888E691E30E94EF
:10149000DC18882301F388E691E30E94B118E7CFB6
:1014A00080E00895E091BA31F091BB3160817181A3
:1014B000828193810C947F0F089584EC91E30E94C4
:1014C0004B17882301F18091C1318F5F8093C13127
:1014D0008333E8F084EC91E30E944B171F928F93C3
:1014E0008AED97E29F938F930E941226E091BD317F
:1014F000F091BE318081826080830F900F900F90B9
:101500000F9081E008958091C131811102C080E087
:10151000089581508093C131DBCF80E00895E09140
:10152000BD31F091BE311082109299311092A131EB
:101530001092A2311092D4311092D53110929E3176
:101540001092BC3108950C943D0F2F923F924F9210
:101550005F926F927F928F929F92AF92BF92CF9243
:10156000DF92EF92FF920F931F93CF93DF93CDB74C
:10157000DEB7C055D109CDBFDEBF29968FAF299701
:101580003B012A0119012B960EAF1FAF2B972D9609
:10159000EEAEFFAE2D972F96CEAEDFAE2F976196B3
:1015A0008EAE9FAE61971092393210923A321092FD
:1015B0003B321092423210924332A0923332B092B8
:1015C00034321F928F9380E098E29F938F930E9412
:1015D00012268DE298E20E942426C12C80E2D82EA9
:1015E0009BE1E92EF12C820120E030E147E050E060
:1015F000B101C3010E94E71285E598E20E9424260A
:101600000DE022E430E243E069E670E2C3010E94AB
:10161000011323EA3AE040E05BE061E080E297E01A
:101620000E9451162B873C874D875E876F87788B8A
:10163000898B9A8B88E0FE013B96A6E4B2E3019089
:101640000D928A95E1F78BE798E20E94242660E0EC
:1016500072E0CE0143960E944E1D83E1FE01739617
:10166000A6EDB1E301900D928A95E1F760E472E096
:10167000CE0143960E944E1D83E1FE017396ABE7B7
:10168000B1E301900D928A95E1F78FE998E20E940B
:101690002426409127325091283261E086ED91E373
:1016A0000E94801D40912732509128324E5F5F4F3B
:1016B00062E086ED91E30E94801D409127325091B7
:1016C00028324C5F5F4F63E086ED91E30E94801DFE
:1016D0008DEC98E20E9424264091313250913232B2
:1016E00066E08BE791E30E94801D409101325091AA
:1016F000023267E08BE791E30E94801D8FEF98E252
:101700000E942426E0903E32F0903F320091163243
:1017100010911732950140EC58E060E476E0CE017C
:1017200086960E94E0198EE0FE01B696A8E1B2E32B
:1017300001900D928A95E1F785E299E20E942426B4
:1017400065E080E696E00E9451142CAB3DAB4EABB9
:101750005FAB68AF85E0FE01F496DE01169601905E
:101760000D928A95E1F760E080E696E00E945114C0
:101770002CAB3DAB4EAB5FAB68AF85E0FE01F496A2
:10178000DE01119601900D928A95E1F780E48F9326
:101790001F9220E4822E2BE0922EA12CCE80DF809F
:1017A000E884F9840A8529813A814B815C816D81C5
:1017B000CE01C9960E94971A8FE0FE01F996A7E024
:1017C000B2E301900D928A95E1F783E599E20E94D8
:1017D00024266091293270912A3240E050E080E066
:1017E0000E943E0E80910532909106326196EEADD8
:1017F000FFAD619780839183809137329091383229
:101800002F96EEADFFAD2F9780839183E09140320C
:10181000F091413229968FAD2997808380913C3297
:1018200090913D322B96EEADFFAD2B978083918347
:1018300080913532909136322D96EEADFFAD2D97D9
:10184000808391830F900F900F900F900F900F90C7
:10185000C05BDF4FCDBFDEBFDF91CF911F910F91F6
:10186000FF90EF90DF90CF90BF90AF909F908F90C0
:101870007F906F905F904F903F902F90089580E001
:101880000C94410F80E00C94600FCF93DF9386EDB2
:1018900091E30E94941D8BE791E30E94941D88E1DF
:1018A00092E30E941C1AC0910332D091043286E464
:1018B00092E30E944B17888386ED91E30E944A1EB3
:1018C0008823D1F38BE791E30E944A1E8823D1F34A
:1018D00088E192E30E94921A8823D1F3F894C09190
:1018E0004E32D0914F3287E092E30E94A31B88834F
:1018F0009983E0913332F091343280A191A1E0914B
:101900004432F091453280839183789488E192E368
:101910000E947F1A81E080932632DF91CF91089553
:1019200088E799E20E94242680E00895E0912B3216
:10193000F0912C3260817181828193810C947F0FB0
:1019400080912632811103C080E00C94B30F80E0B7
:101950000E94980F10922632089580E0089580E04A
:101960000895E0912F32F091303210821092393286
:1019700010923A3210923B3210924232109243321D
:1019800008952F923F924F925F926F927F928F9223
:101990009F92AF92BF92CF92DF92EF92FF920F93FE
:1019A0001F93CF93DF93CDB7DEB7A997CDBFDEBF2F
:1019B0008BA33B012A0119010CA31DA3EEA2FFA2D8
:1019C000C8A6D9A61092D4311092D5311F928F9308
:1019D0008FE899E29F938F930E9412268EEB99E2F3
:1019E0000E942426C12C80E2D82E98E1E92EF12C09
:1019F000820120E030E143E050E0B101C3010E94E8
:101A0000E71287EE99E20E9424260BE022E730E2FB
:101A100042E063E970E2C3010E9401138EE09AE2A2
:101A20000E94242660E472E0CE0101960E944E1DC1
:101A300083E1FE013196ABE7B1E301900D928A9507
:101A4000E1F782E39AE20E942426409162315091AC
:101A5000633166E08BE791E30E94801D85E69AE2A0
:101A60000E942426E0905032F090513200918B3247
:101A700010918C32950140EC58E060E476E0CE01A4
:101A800044960E94E7188FE0FE017496A1E6B2E347
:101A900001900D928A95E1F78AE89AE20E94242645
:101AA000E0907232F0907332009191321091923244
:101AB000950140EC59E060E676E0CE0144960E9444
:101AC000E7188FE0FE017496A2E5B2E301900D9253
:101AD0008A95E1F783EB9AE20E942426E090853212
:101AE000F09086320091893210918A32950140EC53
:101AF0005BE060EA76E0CE0144960E94E7188FE052
:101B0000FE017496A4E7B2E301900D928A95E1F785
:101B100080918F3290919032F401808391838091F3
:101B2000703290917132E8A5F9A580839183E0919C
:101B30009332F09194328BA1808380918D32909179
:101B40008E32ECA1FDA180839183809183329091AC
:101B50008432EEA1FFA1808391830F900F900F90AC
:101B60000F90A996CDBFDEBFDF91CF911F910F914E
:101B7000FF90EF90DF90CF90BF90AF909F908F90AD
:101B80007F906F905F904F903F902F9008950895B1
:101B900008958BE791E30E94941D81E692E30E94F1
:101BA000241982E592E30E94241984E792E30E94BB
:101BB00024198BE791E30E944A1E8823D1F381E622
:101BC00092E30E94DB198823D1F382E592E30E941D
:101BD000DB198823D1F384E792E30E94DB19882381
:101BE000D1F381E692E30E949C1982E592E30E9480
:101BF0009C1984E792E30C949C1980E00895089561
:101C000008950895E0916231F0916331808191816E
:101C100086389B40C8F48091D4319091D53101969B
:101C20008093D4319093D531853F914098F088EDE1
:101C30009AE20E942426E0918732F09188328081D6
:101C40008061808381E008958091D4319091D53175
:101C5000009711F480E0089501978093D431909318
:101C6000D531E2CF80E00895E0918732F09188325B
:101C700010821092D4311092D53108955F926F92F4
:101C80007F928F929F92AF92BF92CF92DF92EF920C
:101C9000FF920F931F93CF93DF93CDB7DEB7A69735
:101CA000CDBFDEBF582E3B014A0188E0809341063C
:101CB00064E080E496E00E9451142E833F834887BD
:101CC00059876A8795E0FE013696DE0111960190EC
:101CD0000D929A95E1F780E2E82E8EE4F82E01E06D
:101CE00029813A814B815C816D81CE010B960E94E6
:101CF0000C159EE0FE013B96A0E4B5E301900D9229
:101D00009A95E1F7A12CBB24B3942EE4C22E25E3CF
:101D1000D22EE12CFF24F39408EA12E321E230EF03
:101D200040EA59E060E676E0CE0149960E940E1046
:101D30009EE0FE017996AAE9B2E301900D929A9590
:101D4000E1F760E08AE992E30E94501042E0A42E9D
:101D5000B12C5FE9C52E50E2D52EE12C07E022E040
:101D600040E06FE388EA93E30E94AC1B22E041E08D
:101D70006EE388EA93E30E94AC1B6CEFC62E6AE226
:101D8000D62E01E022E042E06FE388EA93E30E946E
:101D9000AC1B22E043E06EE388EA93E30E94AC1BB5
:101DA0007DE9C72E70E2D72E22E044E06FE388EA97
:101DB00093E30E94AC1B22E045E06EE388EA93E3E4
:101DC0000E94AC1B6301E3E0EE2E00E121E046E05F
:101DD0006FE388EA93E30E94AC1B640121E047E0D3
:101DE0006EE388EA93E30E94AC1BF4E0AF2EB12CC3
:101DF000A9E9CA2EA0E2DA2E05E022E048E06FE36E
:101E000088EA93E30E94AC1B22E049E06EE388EA93
:101E100093E30E94AC1B00E02AE932E340E060E07B
:101E200070E088EA93E30E943C1C552049F02AE9BF
:101E300032E341E060E070E088EA93E30E943C1CFA
:101E40008FE39CE90197F1F700C00000A696CDBF93
:101E5000DEBFDF91CF911F910F91FF90EF90DF9048
:101E6000CF90BF90AF909F908F907F906F905F903A
:101E7000089580E495E30C94BE1580E495E30C94FA
:101E800005160F93CF93C82F80E495E30E94BE15EB
:101E900000E02AE932E342E060E070E088EA93E3A0
:101EA0000E943C1CCC2349F02AE932E343E060E085
:101EB00070E088EA93E30E943C1CCF910F91089553
:101EC0000F93CF93C82F80E495E30E94051600E09E
:101ED0002AE932E344E060E070E088EA93E30E949C
:101EE0003C1CCC2349F02AE932E345E060E070E095
:101EF00088EA93E30E943C1CCF910F91089528E05B
:101F000097FD0DC02093450680E495E30E943216AC
:101F10008091440690E28927809344060895209397
:101F2000460671956195710980E495E30C9432162B
:101F30000F93CF93C82F00E02AE932E347E060E037
:101F400070E088EA93E30E943C1CCC2349F02AE924
:101F500032E341E060E070E088EA93E30E943C1CD9
:101F6000CF910F9108956AE972E388EA93E30E94A2
:101F7000A91C46E060E070E088EA93E30E94331D0C
:101F8000811102C080E0089541E060E070E088EADD
:101F900093E30C94331D803B29E09207D9F17CF444
:101FA000803B28E0920791F1803A29E0920751F1B5
:101FB000803A984019F120E030E0C9010895803B53
:101FC0002AE0920799F05CF0803A2BE0920791F0BA
:101FD000803B9B4081F728EB3BE2C9010895803AA2
:101FE0009A4049F725E53CE2C90108952FE131E324
:101FF000C90108952DEC3BE2C90108952AED30E3B3
:10200000C901089523EC30E3C90108952EEA3CE2AA
:10201000C90108952BE33BE2C9010895AF92BF9235
:10202000CF92DF92EF92FF920F931F93CF93DF93A4
:10203000FC01EB01DA0144FD2DC088E08D8389832A
:1020400084E08A8316962C93169717963C931797DD
:1020500088E114968C93149783E015968C931597CA
:10206000C083D183A283B3832483358306831783FC
:10207000E086F186C286D386A486B586CF01DF913D
:10208000CF911F910F91FF90EF90DF90CF90BF9075
:10209000AF90089580E88D83898380E48A83D2CFCE
:1020A000EF92FF920F931F93CF93DF931F92CDB7C1
:1020B000DEB77C01DC0112960D911C911397C801CB
:1020C00069830E94CB0FFC01808991896981892BEA
:1020D00009F044C0E08AF18AD70116968D919C914F
:1020E00017978083918318968D919C91199782837D
:1020F000938314821582168217821A968D919C9171
:102100001B97808791871C968D919C911D97828744
:102110009387148615861686178688E2F8018383CE
:102120006623C9F0E0924E36F0924F3681EA90E293
:102130008093523690935336809350369093513615
:1021400020E030E0C9010F90DF91CF911F910F91F6
:10215000FF90EF90089520E030E0F4CF2FEF3FEFB5
:10216000F1CF0F931F93CF93DF93EC010A811B8173
:10217000C8010E94CB0FFC01208931892C173D0733
:1021800061F4108A118AF801138220E030E0C9015D
:10219000DF91CF911F910F9108952FEF3FEFC9016C
:1021A000DF91CF911F910F9108958F929F92AF92DF
:1021B000BF92CF92DF92EF92FF920F931F93CF9334
:1021C000DF935C016B014A01FC01828193810E94D3
:1021D000CB0FEC018C819D81EE80FF80E816F90623
:1021E00008F064C08C01015011090E191F098016F6
:1021F000910608F484010115110509F46BC08E15D0
:102200009F0508F05CC02A813B812E193F092017E9
:10221000310708F054C0E881F981EE0DFF1DA901D6
:10222000B601CF010E9409268A819B819701281B54
:10223000390B200F311F8E199F098C0D9D1DA9018F
:10224000BC01888199810E940926C8018E0D9F1DBD
:102250006A817B810E94F5258E839F8378948A8989
:10226000811116C0F501A281B381E881F9818C81C9
:102270009D81E80FF91F80818C938C819D8101964F
:102280006A817B810E94F5258C839D8381E08A8B06
:10229000C801DF91CF911F910F91FF90EF90DF90D8
:1022A000CF90BF90AF909F908F9008950A811B812F
:1022B000080F191F015011090E191F0998CFF89422
:1022C000288139812E0D3F1DA801B601C9010E9448
:1022D0000926BBCF00E010E0DBCF1F93CF93DF9345
:1022E0001F921F92CDB7DEB7182F80914E36909176
:1022F0004F36009709F11A3089F0198341E050E018
:10230000BE016F5F7F4F0E94D51020E030E0C90111
:102310000F900F90DF91CF911F9108952DE02A83A8
:1023200041E050E0BE016E5F7F4F0E94D51080916A
:102330004E3690914F36E1CF2FEF3FEFE8CFCF935E
:10234000DF931F92CDB7DEB7698341E050E0BE0155
:102350006F5F7F4F0E94D5100F90DF91CF9108954E
:102360000F931F93CF93DF938B01EA01FC018281CE
:1023700093810E94CB0FFC01209779F1848595858C
:10238000268537858217930741F140E050E020E031
:1023900030E005C06685778568177907C1F0A085AC
:1023A000B185A80FB91F8C91D801A40FB51F8C93CC
:1023B000848595850196628573850E94F5258487BD
:1023C00095872F5F3F4FA9012C173D0719F7C901CA
:1023D000DF91CF911F910F91089520E030E0F7CF6A
:1023E00080914E3690914F36009781F041E050E059
:1023F0006EEF7AE20E94B011892B29F02091FE2A1B
:1024000030E0C90108952EEF3FEFFBCF2FEF3FEFF4
:10241000F8CFCF93DF931F92CDB7DEB7198241E09B
:1024200050E0BE016F5F7F4F0E94B01189810F9015
:10243000DF91CF910895FC01828193810E94CB0F9F
:10244000FC0184859585468557854817590740F4D2
:1024500022853385240F351F281B390BC9010895A8
:102460009A01281B390BC9010895CF93DF93EB0123
:10247000FC01828193810E94CB0FFC0184859585AC
:102480008C0F9D1F628573850E94F5250084F18560
:10249000E02DE80FF91F8081DF91CF910895492F3A
:1024A00050E0909350002091510030E024233523D8
:1024B000232BC9F398ED94BF8093400081E00895E9
:1024C0008823A9F08091500084608093500080910F
:1024D000510082FFFCCF85E08093430081E0809330
:1024E0000004809101048111FCCF81E008951092D5
:1024F00043001092000481E008959091A2006111C0
:1025000005C0809589238093A2000895982B90930D
:10251000A200089581E0E8E7F0E0818308956F92DA
:102520007F928F929F92AF92BF92CF92EF92FF9243
:102530000F931F93CF93DF93CDB7DEB72A97CDBF0D
:10254000DEBF3C01CB01BA01E982FA820B831C8316
:102550002D838E829F82A886B986CA8621E040E0BC
:1025600050E00E949220F301208331834283538301
:102570006483758322E030E049815A816B817C81DC
:102580008D810E946F1422E030E04E815F8168856A
:1025900079858A850E946F1449815A816B817C817B
:1025A0008D810E94BC14892BB9F3C3012A96CDBF3B
:1025B000DEBFDF91CF911F910F91FF90EF90CF90F1
:1025C000BF90AF909F908F907F906F900895CF9223
:1025D000DF92EF92FF920F931F93FC01608B718B40
:1025E000068B178B428B538BE08EF18E248B358BB1
:1025F000C28ED38E1F910F91FF90EF90DF90CF90FE
:102600000895EF92FF920F93CF93DF93DC015096E2
:10261000ED91FC9151974423C9F050E07A01EE0C02
:10262000FF1CE40EF51E40E050E0DB01A40FB51FD7
:10263000CD91DC911197E883F9831296AC91EA0F62
:10264000F11D4D5F5F4F4E155F0579F7FC0146891F
:1026500057890023B9F0802F90E0BC01660F771FE7
:10266000680F791F80E090E0F901E80FF91FA08161
:10267000B1814D935C93E2814E0F511D03968617F5
:10268000970791F7DF91CF910F91FF90EF90089509
:10269000EF92FF920F93CF93DF9300D000D0CDB78E
:1026A000DEB77C01242F8FEF8B838C83CB01969533
:1026B0008795929582958F7089279F708927898346
:1026C000611580E1780788F1CB019927880F991F60
:1026D000880F991F880F991F86608A83842F880F1F
:1026E000880F972F907E892B8B8343E0BE016F5F0D
:1026F0007F4F233029F102E09E012B5F3F4FC7013E
:102700000E94C420F70185818111FCCF2D813E817B
:10271000322723273227C9012696CDBFDEBFDF919E
:10272000CF910F91FF90EF900895660F660F660F9F
:10273000642B6A8342E0BE016F5F7F4F2330D9F67E
:10274000FB01E40FF11D8FEF80834F5FD4CFCF9259
:10275000DF92EF92FF920F931F93CF93DF9300D0FE
:10276000CDB7DEB76C018A012B8369837A830E941F
:10277000612144E069817A81C6010E9448137C018D
:102780002B81422FB801C6010E945021F6012581FC
:102790002111FCCFC6010E946C21C7012396CDBF39
:1027A000DEBFDF91CF911F910F91FF90EF90DF90EF
:1027B000CF900895FC0146895789628D738D208DD5
:1027C0000C94A713AF92BF92DF92EF92FF920F93F8
:1027D0001F93CF93DF931F921F92CDB7DEB75C019B
:1027E0008A01F22E69837A830E94612143E0698124
:1027F0007A81C5010E944813D82EE92E4F2D4150F1
:10280000B801C5010E943D21F50135813111FCCF90
:102810002F2D30E021503109200F311F01E041E020
:102820006FEA70E2C5010E94C420F50125812111E3
:10283000FCCFC5010E946C218D2D9E2D0F900F9015
:10284000DF91CF911F910F91FF90EF90DF90BF909C
:10285000AF9008950F931F93CF93DF931F92CDB73F
:10286000DEB78C0121E0AE014F5F5F4F60E271E0A7
:102870000E94E21321E0AE014F5F5F4F60E371E021
:10288000C8010E94A7130F90DF91CF911F910F9164
:102890000895FC01408951896489758922890C94C5
:1028A000E213CF93DF93CDB7DEB72597CDBFDEBF61
:1028B000462F89839A83E62FF0E07096E80FF91F80
:1028C000EC83FD83282F3A815E2F6D8170E080E0DC
:1028D00090E02596CDBFDEBFDF91CF910895CF93D5
:1028E000DF93CDB7DEB72597CDBFDEBF49835A83CF
:1028F000E981FA81E20FF31F81E090E001C0880FC7
:102900006A95EAF780832596CDBFDEBFDF91CF9130
:102910000895CF93DF93CDB7DEB72597CDBFDEBF48
:1029200049835A83E981FA81E20FF31F81E090E045
:1029300001C0880F6A95EAF786832596CDBFDEBF72
:10294000DF91CF910895CF93DF93CDB7DEB7259771
:10295000CDBFDEBF49835A83E981FA8181E090E0EF
:10296000062E01C0880F0A94EAF787832596CDBF0B
:10297000DEBFDF91CF910895CF93DF93CDB7DEB760
:102980002597CDBFDEBF49835A836B837C838D83BC
:10299000E981FA81808590E002C0959587956A95D6
:1029A000E2F780FD09C020E030E0C9012596CDBFE7
:1029B000DEBFDF91CF9108952FEF3FEFF6CFCF939A
:1029C000DF93CDB7DEB72597CDBFDEBF49835A83EE
:1029D0006B837C838D83EC81FD8180818861808322
:1029E0002596CDBFDEBFDF91CF910895CF93DF93C2
:1029F000CDB7DEB72597CDBFDEBF49835A836B8342
:102A00007C838D83EC81FD81808110822596CDBFF2
:102A1000DEBFDF91CF9108956F927F928F929F9248
:102A2000AF92BF92CF92DF92EF92FF920F93CF932C
:102A3000DF93CDB7DEB72597CDBFDEBF6C0129830D
:102A40003A834B835C836D8389819A81642F8034C0
:102A500026E0920709F47AC0803636E0930709F43D
:102A60007DC08038E6E09E0709F480C0803AF6E039
:102A70009F07D9F0F60115821682178210861186FB
:102A8000128613861486C6012596CDBFDEBFDF9160
:102A9000CF910F91FF90EF90DF90CF90BF90AF90CC
:102AA0009F908F907F906F90089540E4642E4BE04C
:102AB000742E812C5BE0952E643060F5A62EB12C2F
:102AC000AA0CBB1CF8E2AF0EB11CA80CB91CF40197
:102AD000E6A2F7A22181287F236021832081207F25
:102AE000202B2083F82C092D612C712C482F8983F1
:102AF0009A8321E030E05A817C818D810E946F149D
:102B0000F6018582968267827086F1860287A386A7
:102B1000B486B9CF663008F0ADCFA62EB12CAA0C82
:102B2000BB1C20E2A20EB11CA60CB71CF301E6A24E
:102B3000F7A22181287F236021832081207F202B01
:102B40002083F62C072D812C912CD0CFB0E46B2E56
:102B5000B8E07B2E812C28E0922EAECFF0E46F2ED1
:102B6000F9E07F2E812CA9E09A2EA6CF70E4672E83
:102B70007AE0772E812CEAE09E2E9ECFDC0115961E
:102B8000ED91FC9116973097D1F0618148ED5FEFA0
:102B90004E1B5F0B1B968D919C911C97840F951F6C
:102BA00097FD2DC095958795049621E030E0082E7D
:102BB00001C0220F0A94EAF7262B21830895179665
:102BC000ED91FC9118973097C9F041811B968D913A
:102BD0009C911C978E1B9F0B9C012852310937FD3D
:102BE00010C0359527952C5F3F4F81E090E0022E75
:102BF00001C0880F0A94EAF7842B81830895019617
:102C0000D1CF9C0127523109ECCFDC011596ED9113
:102C1000FC9116973097D9F041811B968D919C912C
:102C20001C978E1B9F0B9C012852310937FD16C043
:102C3000359527952C5F3F4F81E090E0022E01C033
:102C4000880F0A94EAF78095842381830895179664
:102C5000ED91FC9118973097F9F6F8CF9C01275227
:102C60003109E6CFCF93DF93EC01AB85BC8510979C
:102C7000A9F0E985FA852D913C911197AB01435656
:102C8000510905C080A191A1841795072CF080A15E
:102C900091A128173907B0F76D937C93DF91CF91FD
:102CA0000895CF93DF93CDB7DEB72897CDBFDEBFB2
:102CB000FC01722F9581862F809589238583A0EB57
:102CC000B0E06C9329E1208B1C9280E09DE7DA0153
:102CD00096968D939C9397976287E983FA834C83AA
:102CE0005D833F832E2F3A81542F8D81462F682F8D
:102CF0008F8198852896CDBFDEBFDF91CF91089553
:102D0000DC01ED91FC9111978185837009F0BBC0C6
:102D1000E03826E0F20709F4B1C0DCF1E03E86E0DD
:102D2000F80709F497C00CF048C0E03A86E0F807CD
:102D300021F4A093292BB0932A2B13968D919C916B
:102D40001497803429E0920709F47FC00CF04EC03C
:102D5000803428E0920709F46EC0811529E09207BB
:102D600009F46EC08115984021F4A0930B2BB09309
:102D70000C2B81E08487ED91FC91119783E0818792
:102D80001396ED91FC911497868320E030E0C90101
:102D90000895E03226E0F20709F461C0ECF0E03477
:102DA00086E0F80709F465C0E03626E0F20729F668
:102DB000A0930D2BB0930E2BC0CFE11527E0F207A7
:102DC00009F452C0E03287E0F80709F0B6CFA093CB
:102DD000FE2BB093FF2BB1CFE11526E0F20709F0EF
:102DE000ACCFA093022CB093032CA7CF80342AE061
:102DF0009207E1F04CF481159A4009F0BACFA09304
:102E0000D830B093D930B5CF81152BE0920749F077
:102E100080349B4009F0ADCFA0931231B0931331B1
:102E2000A8CFA093CB2BB093CC2BA3CFA093152BE3
:102E3000B093162B9ECFA0937C2CB0937D2C99CF72
:102E4000A093002CB093012C94CFA0930F2BB093A0
:102E5000102B8FCFA093FA2BB093FB2B6ECFA093A8
:102E6000C130B093C23069CFA0937E2CB0937F2C39
:102E700064CFA0938C2BB0938D2B5FCFA093942C19
:102E8000B093952C5ACF2FEF3FEF81CFDC01ED911E
:102E9000FC9111860895FC01A081B18118969C9146
:102EA0008281892308956F927F928F929F92AF9231
:102EB000BF92CF92DF92EF92FF920F931F93CF9327
:102EC000DF93CDB7DEB72A97CDBFDEBF3C012983A4
:102ED0003A834B835C836D83CE82DF82E886F986FA
:102EE0000A87A50194010E811F8185E0FE013196BC
:102EF000D30101900D928A95E1F785E0FE013696A7
:102F0000D301159601900D928A95E1F761E070E08A
:102F10000E2C01C0660F0A94EAF7C8010E945116F0
:102F2000F301228733874487558766877787808BAD
:102F3000918B22E030E04E815F81688579858A85BA
:102F40000E946F144E815F81688579858A850E9411
:102F5000F61421E030E049815A816B817C818D81BA
:102F60000E946F142FEF3FEF49815A816B817C8162
:102F70008D810E948914F30105831683E782C301C2
:102F80002A96CDBFDEBFDF91CF911F910F91FF90A9
:102F9000EF90DF90CF90BF90AF909F908F907F90F9
:102FA0006F9008950A960C9480160A960C94461712
:102FB000FC0120E030E04081518162817381848195
:102FC0000C948914FC012FEF3FEF40815181628105
:102FD000738184810C948914FC0145815681678139
:102FE000708581850E94BC1421E0892B09F420E0C2
:102FF000822F08956F927F928F929F92AF92BF928D
:10300000CF92DF92EF92FF920F931F93CF93DF93B4
:10301000EC015B014A01390120E041E050E0B401DC
:10302000C5010E949220288339834A835B836C8385
:103030007D836E827F82098B1A8BE886F986CA8629
:10304000DB86F4018081837F8860808380E8F501DE
:1030500081838583CE01DF91CF911F910F91FF90E6
:10306000EF90DF90CF90BF90AF909F908F907F9028
:103070006F900895FC018581811170C0A081B1819C
:1030800018968C9186FF67C0A281B3818C918F7B4B
:103090008C93A081B18120E816962C9300C000C0CB
:1030A000F894A681B78190968D919C919197A28575
:1030B000B3858D939C93A081B18115962C937894C0
:1030C00000C000C0A081B18116962C9300C000C042
:1030D000A081B18115962C9300C000C0A081B18160
:1030E00016962C9300C0A081B18118968C911897E8
:1030F00086FD10C080E815968C930000A081B181F8
:1031000016968C930000A081B18118969C91189717
:1031100096FFF1CF80E815968C9300C000C0A08187
:10312000B18116968C9300C000C0A081B181159624
:103130008C9300C000C0A281B3818C9180648C9379
:10314000BF01645F7F4F45E0CF010E943D2120E039
:1031500030E0C90108952EEF3FEFFBCF2FEF3FEF97
:10316000F8CFFC01A085B1858485458550E060E0FD
:1031700070E0BA0155274427782B8785482B868530
:10318000582B4D935D936D937C931397A285B385D4
:1031900021893289220F331F220F331F8D919C9179
:1031A0001197820F931F8D939C9380890895FC0142
:1031B000958181E089270895FC012581211105C0B1
:1031C0008089881F8827881F089580E008958F923E
:1031D0009F92AF92BF92CF92DF92EF92FF920F93A6
:1031E0001F93CF93DF93EC016B015A01490120E05B
:1031F00042E850E0B501C6010E949220288339833D
:103200004A835B836C837D838E829F8208871987C4
:10321000EA86FB861C861D861E86F5018081837FDB
:103220008860808380E8F60181838583CE01DF9109
:10323000CF911F910F91FF90EF90DF90CF90BF90B3
:10324000AF909F908F900895FC018581811171C08E
:10325000A081B18118968C9186FF68C01486A281E6
:10326000B3818C918F7B8C93F894A681B7819096D3
:103270008D919C919197A285B3858D939C93A0810C
:10328000B18120E816962C93789485E18A95F1F720
:103290000000A081B18115962C9386E08A95F1F704
:1032A00000C0A081B18116962C9300C0F894A08133
:1032B000B18115962C93A081B18118968C91807460
:1032C00090E0959587959595879595958795959592
:1032D0008795959587959485982B9487789400C0C9
:1032E000A081B18116962C9300C0F894A081B18181
:1032F00015962C93A081B18118969C9196FB9927E5
:1033000090F98485892B8487789400C0A281B38149
:103310008C9180648C93BF01635F7F4F42E0CF014B
:103320000E943D2120E030E0C90108952EEF3FEFDB
:10333000FBCF2FEF3FEFF8CF0F931F93FC01A0853A
:10334000B185458550E060E070E0440F551F661F71
:10335000771F440F551F661F771F440F551F661FA9
:10336000771F440F551F661F771F440F551F661F99
:10337000771F440F551F661F771F440F551F661F89
:10338000771F048510E020E030E08FE0000F111F70
:10339000221F331F8A95D1F7402B512B622B732BA1
:1033A00086858695482B4D935D936D937C931397FB
:1033B0001F910F910895FC01958181E0892708955F
:1033C0008F929F92AF92BF92CF92DF92EF92FF9235
:1033D0000F931F93CF93DF93EC016B015A014901C7
:1033E00020E042E850E0B501C6010E949220288307
:1033F00039834A835B836C837D838E829F820887B7
:103400001987EA86FB861C861D86F5018081837FED
:103410008860808380E8F60181838583CE01DF9117
:10342000CF911F910F91FF90EF90DF90CF90BF90C1
:10343000AF909F908F900895FC01858181115CC0B1
:10344000A081B18118968C9186FF53C01486158691
:10345000A281B3818C918F7B8C93F894A681B781E4
:1034600090968D919C919197A285B3858D939C9315
:10347000A081B18180E816968C9300C000C0A08125
:10348000B18115968C9300C000C0789482E090E0E2
:1034900040E8F894A081B18116964C93A081B18147
:1034A00018962C91207430E0082E02C0359527958F
:1034B0000A94E2F73485322B3487789400C0A081D7
:1034C000B18115964C9300C000C0019687309105DC
:1034D00001F7A281B3818C9180648C93BF01635FFB
:1034E0007F4F41E0CF010E943D2120E030E0C90143
:1034F00008952EEF3FEFFBCF2FEF3FEFF8CFFC010A
:10350000A085B185448550E060E070E0762F652F9E
:10351000542F44278585482B4D935D936D937C9361
:1035200013970895FC01958181E0892708952F92D2
:103530003F924F925F926F927F928F929F92AF9243
:10354000BF92CF92DF92EF92FF920F931F93CF9390
:10355000DF93CDB7DEB72B97CDBFDEBF3C0129830C
:103560003A83B42E4B835C836D83CE82DF829E2DA3
:10357000E886F9860A87E9A0FAA009811A81CC8039
:10358000DD804E805F8029843A8423E030E0042E81
:1035900001C0220F0A94EAF7F80126832093B000B5
:1035A000F6018081887F836080830034F6E01F0706
:1035B00009F4B1C00CF049C00115E6E01E0709F49A
:1035C000A6C00032F6E01F0709F49DC0809180017B
:1035D0008B298093800189E080938801A11048C0E5
:1035E00088E6F40183839701220F331F220F331FD4
:1035F0002150310926A337A381E08083F3010083A2
:103600001183B282C382D4824582568297832086F8
:103610003186A28683869486E586F686C3012B963C
:10362000CDBFDEBFDF91CF911F910F91FF90EF9043
:10363000DF90CF90BF90AF909F908F907F906F90D2
:103640005F904F903F902F900895003886E01807C4
:1036500009F455C0003AE6E01E0709F44CC00036F4
:10366000F6E01F0709F0B2CF88E680938001AECF65
:10367000988722E030E04E815F81692F79858A85C5
:103680009B870E946F14F1018081887F80839B85D6
:10369000F0E44F16F6E05F0609F441C0ACF080E8B4
:1036A000481686E0580609F44AC0E0EA4E16E6E0FD
:1036B0005E0609F440C0F0E64F16F6E05F0669F4D6
:1036C00088E68093810109C04114E6E05E0679F145
:1036D000F0E24F16F6E05F0631F180918101892B0F
:1036E0008093810181E080938901809188018061CC
:1036F0008093880175CF88E78093800167CF80E74A
:103700008093800163CF88E5809380015FCF80E55F
:10371000809380015BCF80E68093800157CF80E665
:1037200080938101DACF88E580938101D6CF80E54F
:1037300080938101D2CF88E780938101CECF80E74B
:1037400080938101CACFDC011B96ED91FC911C97FF
:1037500020A131A1C90108958F929F92AF92BF928B
:10376000CF92DF92EF920F93CF93DF93A42FB0E02D
:103770004D01880C991CF401EA0FFB1FEE0FFF1F8F
:10378000EE0FFF1FEE0FFF1FE80FF91F468B178A82
:10379000A28AB38AC08AD18A35EA308361834F70A6
:1037A000440F440F422B42830383E48295013695F4
:1037B00027952583EF0166E0E0E0F0E05E2F4427E7
:1037C0007991EF2FFF27E727EE0FFF1FE055FF4D01
:1037D0000190F081E02DE427F527615079F79401FD
:1037E0002A0F3B1F220F331F220F331F220F331FBD
:1037F000280F391FE901FE83EF83A114B104C9F139
:103800006889798920E030E0D12CE0E0F0E05E2F9B
:103810004427EF2FFF27EB01C20FD31F2881E22798
:10382000EE0FFF1FE055FF4D0190F081E02DE427E2
:10383000F527D3942D2D30E02A153B0540F3A80D34
:10384000B91DAA0FBB1FAA0FBB1FAA0FBB1FA80F32
:10385000B91F5496ED93FC935597CD01DF91CF910D
:103860000F91EF90DF90CF90BF90AF909F908F908F
:103870000895E0E0F0E0E3CFEF92FF920F93CF9353
:10388000DF93EB017901209709F451C0002331F156
:103890008A899B89009709F459C02889398940E0B1
:1038A00050E000E0A0E0B0E07A2F6627AB2FBB2706
:1038B000420F531FFA014081A427AA0FBB1FA05536
:1038C000BF4D0D90BC91A02DA627B7270F5F402FAD
:1038D00050E04817590740F3AC8BBD8B88E0FE01E0
:1038E000AFEFBAE201900D928A95E1F727E03BE253
:1038F000688979894A895B89C9010E9409264A89B0
:103900005B898C899D89FA01E150F54D908781870B
:10391000465F5F4F6FEF7AE2C7010E94D51081E0EA
:103920008F8BDF91CF910F91FF90EF90089550E032
:10393000EA01CC0FDD1FC40FD51FCC0FDD1FCC0F4C
:10394000DD1FCC0FDD1FC80FD91FA0CFA0E0B0E056
:10395000C3CFCF92DF92EF92FF920F931F93CF933B
:10396000DF937C01EB0108C0CE010E941B12892B62
:1039700051F0CE010E94091260E070E0CE010E9479
:103980003512853A89F7C12CD12C23C02FEFC21AEA
:10399000D20A080F191F000F111F000F111F000F6F
:1039A000111FB801685F7F4F6E0D7F1D48E050E02A
:1039B000CE010E94B0110E0D1F1DF801458550E08B
:1039C0004E5F5F4F60897189CE010E94B011F8018E
:1039D000178ACE010E941B120897D8F1CE010E94CF
:1039E0001B128C0165E070E0CE010E94351281113E
:1039F00024C028E030E00217130758F162E070E0BD
:103A0000CE010E94351286958695082F10E0C801D8
:103A1000880F991FFC01E00FF11FEE0FFF1FEE0F43
:103A2000FF1FEE0FFF1FEE0DFF1D27892111AECFE7
:103A300000E110E080E290E0ACCF65E070E0CE0104
:103A40000E943512282F30E0265F3F4F02171307E0
:103A5000A8F68C2DDF91CF911F910F91FF90EF90E1
:103A6000DF90CF9008956115710529F0FB019789CA
:103A700081E08927089550E0BA01660F771F640F2F
:103A8000751F660F771F660F771F660F771F680F0A
:103A9000791FFB01978981E089270895FC01DB01EB
:103AA00060837183128213821482158216821782B8
:103AB000108611861286138614861586168617863A
:103AC000108A118A128A81E08C9311961C921197A8
:103AD00090E212969C93129792E014969C931497FE
:103AE00090968C93909798968C939897D0968C9369
:103AF000D097D8968C93D897DA968C93CF01089567
:103B0000E62FF0E0EE0FFF1FE80FF91F4383548309
:103B1000FC01428121E030E0062E01C0220F0A9410
:103B2000EAF7422B42830895FC01A081B181A115DF
:103B300082E0B80709F465C0A03482E0B807C1F09C
:103B400091961C92A081B18188E099968C93A08176
:103B5000B18180E1D1968C93A081B18188E1D99621
:103B60008C930190F081E02D80818C638083089597
:103B700080914E2B90914F2B906880934E2B909379
:103B80004F2B8091502B9091512B90688093502B0C
:103B90009093512B8091522B9091532B906880934E
:103BA000522B9093532B8091542B9091552B9068CE
:103BB0008093542B9093552B8091562B9091572B9B
:103BC00090688093562B9093572B8091582B90910F
:103BD000592B90688093582B9093592B80915A2B96
:103BE00090915B2B906880935A2B90935B2B8091E4
:103BF0005C2B90915D2B906880935C2B90935D2B58
:103C00009FCF8091042C9091052C90688093042C78
:103C10009093052C8091062C9091072C90688093AE
:103C2000062C9093072C8091082C9091092C906879
:103C30008093082C9093092C80910A2C90910B2C46
:103C4000906880930A2C90930B2C80910C2C90916F
:103C50000D2C906880930C2C90930D2C80910E2C41
:103C600090910F2C906880930E2C90930F2C809144
:103C7000102C9091112C90688093102C9093112C03
:103C80008091122C9091132C90688093122C909319
:103C9000132C56CFCF93DF93FC0180819181811546
:103CA00022E0920709F474C08034924021F080E051
:103CB000DF91CF91089520914E2B30914F2BAEE4A0
:103CC000BBE21E968D919C911F9797FDF0CF82814C
:103CD00080FF05C0C381D4813F70288339838281EE
:103CE00081FF09C0C581D68112968D919C91139751
:103CF0009F7088839983828182FF09C0C781D085A4
:103D000014968D919C9115979F70888399838281D9
:103D100083FF09C0C185D28516968D919C91179716
:103D20009F7088839983828184FF09C0C385D4856D
:103D300018968D919C9119979F70888399838281A1
:103D400085FF09C0C585D6851A968D919C911B97D4
:103D50009F7088839983828186FF09C0C785D08937
:103D60001C968D919C911D979F7088839983828169
:103D700086FF15C00188F289E02D1E968D919C91D9
:103D80001F979F708083918381E0DF91CF91089589
:103D90002091042C3091052CA4E0BCE292CF81E06C
:103DA000DF91CF9108954F925F926F927F928F92A1
:103DB0009F92AF92BF92CF92DF92EF92FF920F93BA
:103DC0001F93CF93DF93CDB7DEB72597CDBFDEBF6F
:103DD0002C013A01E982FA820B831C832D8381E056
:103DE00080934106F2016083718342835383C186CD
:103DF000D286A386B48685869686898D9A8D878796
:103E0000908B118A8AE0FB01818388E2FA01838327
:103E100088E1848380EC858387E0868385E0FE01EA
:103E20003196D201149601900D928A95E1F721E026
:103E300030E049815A816B817C818D810E946F14B1
:103E40002FEF3FEF49815A816B817C818D810E94E8
:103E50008914F0EB6F16F9E07F0609F45FC0A4F552
:103E6000E0EB6E16E8E07E0609F455C0F0EA6F1646
:103E7000F9E07F0609F44CC080EA681688E078060D
:103E800009F443C0E0E0F0E088E08083118280E143
:103E90008283138288E18483158216821782C2018D
:103EA0002596CDBFDEBFDF91CF911F910F91FF907F
:103EB000EF90DF90CF90BF90AF909F908F907F90CA
:103EC0006F905F904F900895E0EB6E16EAE07E06EB
:103ED000B1F06CF0E0EA6E16EBE07E0699F0F0EBE4
:103EE0006F16FBE07F0671F6EEE8FBE2CDCF80EACD
:103EF00068168AE0780631F6E0E8FCE2C5CFE8E62D
:103F0000FCE2C2CFE0EFF0E3BFCFE2EAFBE2BCCFDE
:103F1000E4EEFBE2B9CFE4E3F1E3B6CFE6E9FCE29D
:103F2000B3CF0F931F93CF93DF93EC018989811156
:103F300033C081E0898B8A819B81803B29E0920795
:103F400089F07CF5803BB8E09B07B1F1803AE9E06D
:103F50009E0709F447C0803A984009F440C000E049
:103F600010E002C006E91CE220E030E04C815D81F7
:103F70006E817F8188850E948914D8015296CD93E5
:103F8000DC93539750961C92509751961C925197E0
:103F9000EA81FB818C918083DF91CF911F910F91FA
:103FA0000895803B2AE0920751F064F4803A9A40E9
:103FB000B1F600E81CE2D8CF04E311E3D5CF08E660
:103FC0001CE2D2CF803AEBE09E0731F0803B9B4071
:103FD00031F60EE81BE2C8CF00EF10E3C5CF02EACE
:103FE0001BE2C2CF04EE1BE2BFCFFC01918981E04E
:103FF00089270895CF93DF93DC0112968D919C91D0
:104000001397803B29E0920709F463C094F0803B4A
:104010002AE0920709F45AC00CF449C0803A2BE018
:10402000920709F44DC0803B9B4081F4EEE8FBE22F
:104030000FC0803B28E0920709F445C0803A29E090
:104040009207D9F1803A984009F446C0E0E0F0E0E8
:104050001996CD91DC911A97908580E02185822B6D
:104060009F70888399831B96CD91DC911C979285D4
:1040700080E02385822B9F70888399831D96CD9144
:10408000DC911E97948580E02585822B9F70888324
:1040900099831F960D90BC91A02D968580E0278571
:1040A000822B9F708D939C93DF91CF910895803ADE
:1040B0009A4061F6E0E8FCE2CBCFE4EEFBE2C8CF49
:1040C000E0EFF0E3C5CFE4E3F1E3C2CFE8E6FCE2E2
:1040D000BFCFE6E9FCE2BCCFE2EAFBE2B9CF0F9347
:1040E000FC016083718342832383348305831682BA
:1040F0008281882371F0A781B08512960D90BC91C2
:10410000A02D0190F081E02D808113968C930F916A
:1041100008950780F085E02D0280F381E02D138261
:104120000F910895CF93DF93CDB7DEB72C97CDBF16
:10413000DEBFFC018F83988769877A872B8780EAA7
:10414000818380E4828380E18183211185831C86C1
:104150004065FB01408382E0818386E0FE01379663
:10416000DE01119601900D928A95E1F729813A813D
:104170004B815C816D817E8180E090E02C96CDBF8B
:10418000DEBFDF91CF9108950F93CF93DF93EC01C2
:104190008D8181116FC0EA81FB8111828A819B81AF
:1041A000803C9840D1F18A819B81803C994009F400
:1041B00043C08A819B81803C9A4009F44CC08A812B
:1041C0009B81803C9B4011F58091532C9091542C05
:1041D000892BA9F4C093532CD093542C8CE49CE2EB
:1041E0000E946F2081E08D83EA81FB8182E08183E0
:1041F00020E030E0C901DF91CF910F9108952EEFBB
:104200003FEFC901DF91CF910F9108952DEF3FEF5F
:10421000C901DF91CF910F91089580914A2C90911F
:104220004B2C892B61F7C0934A2CD0934B2C83E401
:104230009CE20E946F20D6CF8091892B90918A2B8F
:10424000892BE9F6C093892BD0938A2B82E89BE2D5
:104250000E946F20C7CF80911B3190911C31892B18
:1042600071F6C0931B31D0931C3184E191E30E941D
:104270006F20B8CF2FEF3FEFBDCF0F93411105C097
:1042800020E030E0C9010F910895042F9B0140E028
:1042900060E070E00E94C4209C01C9010F91089564
:1042A0000F93411105C020E030E0C9010F9108953E
:1042B00000E020E030E00E94C4209C01C9010F9181
:1042C0000895DC0114962C911497222321F0ED918E
:1042D000FC9180E186830895DC0114962C9114975B
:1042E000222321F0ED91FC9180E185830895CF9305
:1042F000DF93CDB7DEB7C555D109CDBFDEBF81E0B5
:1043000092E00E944F12811105C081E08093410626
:104310008093450661E082E00E947D1261E084E0C6
:104320000E947D1261E081E00E947D12789487E016
:10433000809341068FE38093B00088E1809310075B
:104340008FE39FE10197F1F700C00000809108071B
:104350008F7380938B2B811102C00E945D0660E1F8
:10436000A62EB12C7BE2C72E7BE2D72EE12CE4E017
:10437000FE2E01EC1CE221E230EF40EA5AE060E858
:1043800076E0CE0145960E940E108EE0FE017596F5
:10439000A4E0B1E301900D928A95E1F780918B2B17
:1043A000813129F061E084E091E30E94501080EDBA
:1043B00092E20E9424268EEE92E20E94242667E07A
:1043C00080E097E00E9451142BA33CA34DA35EA371
:1043D0006FA385E0FE01B396DE01509601900D9229
:1043E0008A95E1F766E080E097E00E9451142BA3E4
:1043F0003CA34DA35EA36FA385E0FE01B396DE014F
:104400001B9601900D928A95E1F732E2832E31E0FE
:10441000932EA12C4AE0B42EC888D988EA88FB885C
:104420000C892B853C854D855E856F85CE018896F0
:104430000E94531782E1FE01B896A7E1BBE201900A
:104440000D928A95E1F78BE093E20E94242652E0D8
:10445000D52ED092000883E393E20E94242661E0E7
:1044600080E896E00E9451142BA33CA34DA35EA3C9
:104470006FA385E0FE01B396DE01169601900D92C2
:104480008A95E1F760E080E896E00E9451142BA342
:104490003CA34DA35EA36FA385E0FE01B396DE01AE
:1044A000119601900D928A95E1F78E809F80A884E5
:1044B000B984CA84E980FA800B811C812D8140EC8B
:1044C0005AE060E876E0CE01CA960E948F128CE135
:1044D000FE01FA96A0E6BBE201900D928A95E1F703
:1044E000D0929106D0928A0680918B2B1F928F9347
:1044F00082E593E29F938F930E9412260F900F9074
:104500000F900F9080918B2B8073803109F4DAC269
:1045100008F012C1811116C182E793E20E9424269D
:104520008AE597E08093112B9093122B88EA99E00B
:104530008093AA2C9093AB2C8BEA99E08093FC2B70
:104540009093FD2B8EEA99E08093D6309093D730EC
:1045500080E59AE080937E2B90937F2B82E59AE012
:104560008093802B9093812B88E597E08093F82BA4
:104570009093F92B8DE59AE08093EE309093EF3095
:104580008DE89AE08093132B9093142B8FE89AE098
:104590008093AC2C9093AD2C8CE59AE080933231D3
:1045A000909333319FEF27EA31E69150204030401D
:1045B000E1F700C0000087E094E20E942426E09129
:1045C000112BF091122B62EE862E6BE2962EA12C0F
:1045D00078E0B72EA0EECA2EABE2DA2EBCE7EB2EC7
:1045E000BBE2FB2E0DE111E328E431E344E15CE2A0
:1045F00060E67BE280918B2B199583E394E20E9425
:10460000242684E18093A30A85E694E20E9424266E
:1046100083E08093460A8093400A87E894E20E94F0
:10462000242687E19BE20E94D21781EA94E20E944D
:10463000242682EC94E20E942426E091E22BF09161
:10464000E32B8081918180935E2B90935F2B8091EF
:104650004406887F82608093440611E005E084E090
:10466000E82E93E0F92E22E0D22E04C01092600AC8
:104670001092610A80918C0680FFF8CF109220087A
:104680001092210810938C06E091D630F091D7302B
:1046900080918B2B1995E091E02BF091E12B80819B
:1046A0008F5F808380E69BE20E94DA1380E69BE2C4
:1046B0000E944914E0917C2BF0917D2B808188230E
:1046C00009F453C0813009F4FCC0823009F469C098
:1046D000833009F4DFC0843009F42CC1863009F43A
:1046E0006FC1853011F0873008F20E94220180915D
:1046F0004406887F8160809344068091B62B909118
:10470000B72B01968093B62B9093B72BE0911D3178
:10471000F0911E312081263009F0A8CF893E9340C8
:1047200008F4A4CFE0917C2BF0917D2B20838AEDBF
:1047300095E20E9424269ACF803209F40FC280337A
:1047400009F407C288EC93E20E94242680918B2B07
:104750001F928F938AED93E29F938F930E9412266C
:104760000F900F900F900F90FFCF80914406887F9D
:1047700082608093440687E19BE20E94E217E09109
:104780001D31F0911E318081823009F073CFE091AC
:104790007C2BF0917D2B108387EE94E20E942426DF
:1047A00069CF80914406887F846080934406A091FD
:1047B0001D31B0911E318C91833009F480C0882363
:1047C00009F47DC0843009F451C1853009F450C129
:1047D000E091E22BF091E32B8081918120915E2B7F
:1047E00030915F2B8217930709F404C11092ED30CA
:1047F00080935E2B90935F2BE091132BF091142B01
:1048000080918B2B1995882329F0E0917C2BF091D6
:104810007D2BE082E091EE30F091EF3080918B2B98
:104820001995811106C087E19BE20E94EC1788234D
:10483000A1F087E19BE20E94EC178111F1C0E091A9
:104840007C2BF0917D2B00831092B62B1092B72B0E
:10485000E091FC2BF091FD2B1995E0917C2BF091D0
:104860007D2B8081823009F4E0C0833009F4F4C0EC
:10487000843009F4E7C0853009F02ACF85E295E25B
:104880000E942426E0917C2BF0917D2B8081833047
:1048900009F021CF80914406887F8560809344068B
:1048A000E091FC2BF091FD2B1995E0917C2BF09180
:1048B0007D2B108282EC94E20E942426DBCEF082D3
:1048C00087CF80914406887F866080934406E0917C
:1048D000AC2CF091AD2C19951092ED30E091EE30AA
:1048E000F091EF3080918B2B199581110AC0E091E6
:1048F000132BF091142B80918B2B1995882309F49D
:10490000BDC087E19BE20E94EC17811196C0E09147
:104910007C2BF0917D2B00831092B62B1092B72B3D
:1049200085E295E20E942426E0917C2BF0917D2B7C
:104930008081CBCE80914406887F8360809344063B
:10494000E091EE30F091EF3080918B2B1995811131
:1049500006C087E19BE20E94EC17882391F0E0916A
:104960007C2BF0917D2B0083E091FC2BF091FD2BB3
:1049700019951092B62B1092B72B85E295E20E9402
:104980002426E0917C2BF0917D2B8081843009F0EE
:10499000A5CEE0917E2BF0917F2B80918B2B1995EA
:1049A000882309F480C0E0917C2BF0917D2B8081DD
:1049B000853009F05FCE85E295E20E9424265ACE2A
:1049C0008091440687608093440687E19BE20E94C1
:1049D000E217E091AC2CF091AD2C19951092ED30CE
:1049E000E0917C2BF0917D2B108282EC94E20E946E
:1049F000242640CE2091ED302F5F2093ED30809320
:104A00005E2B90935F2B2A3008F4F6CE8FE695E26A
:104A10000E942426E0917C2BF0917D2B0083ECCE2C
:104A20008CE095E20E9424260ACFE091802BF09141
:104A3000812B80918B2B19951DCE8CE095E20E94E5
:104A4000242665CF85EB95E20E942426E0917C2BFD
:104A5000F0917D2B80810FCF80E995E20E94242682
:104A6000E0917C2BF0917D2B808102CF8083B0CEB2
:104A700080831092B62B1092B72BAACE87E19BE2CF
:104A80000E94EC1781113DCFE091AA2CF091AB2C44
:104A90001995E0917C2BF0917D2BD0828BE495E2EF
:104AA0000E942426E7CDE0917C2BF0917D2B0083A2
:104AB000E091FC2BF091FD2B19951092B62B1092E2
:104AC000B72B71CF87E893E20E94242685EA9AE00B
:104AD0008093112B9093122B8FE39CE08093AA2C50
:104AE0009093AB2C82E49CE08093FC2B9093FD2B65
:104AF00085E49CE08093D6309093D73080E99CE0A9
:104B000080937E2B90937F2B86E99CE08093802B73
:104B10009093812B83EA9AE08093F82B9093F92B62
:104B20008DEA9CE08093EE309093EF308FEA9CE02A
:104B30008093132B9093142B81EB9CE08093AC2CEF
:104B40009093AD2C80EA9CE0809332319093333186
:104B500029CD82EB93E20E94242624CD8CE993E2B6
:104B60000E94242681EC9CE08093112B9093122BC1
:104B700087EC9DE08093AA2C9093AB2C88EC9DE071
:104B80008093FC2B9093FD2B89EC9DE08093D63095
:104B90009093D7308DEF9DE080937E2B90937F2B69
:104BA0008FEF9DE08093802B9093812B80E09EE09F
:104BB0008093F82B9093F92B82E09EE08093EE3067
:104BC0009093EF3082E39EE08093132B9093142B0D
:104BD00084E39EE08093AC2C9093AD2C81E09EE02A
:104BE0008093323190933331DDCCAA1BBB1B51E152
:104BF00007C0AA1FBB1FA617B70710F0A61BB70B4D
:104C0000881F991F5A95A9F780959095BC01CD01F1
:104C10000895FB01DC0102C001900D92415050400B
:104C2000D8F70895CF93DF93CDB7DEB7FE01369660
:104C300061917191AF0180915236909153360E94EB
:104C40005326DF91CF9108950F931F93CF93DF9356
:104C50008C01E0915236F0915336838181FF1BC065
:104C6000C0E0D0E005C01995892B11F0CFEFDFEF40
:104C7000F80181918F016091523670915336DB01BA
:104C80001896ED91FC9119978111EDCF8AE0199555
:104C9000892B09F402C0CFEFDFEFCE01DF91CF9176
:104CA0001F910F9108952F923F924F925F926F92B2
:104CB0007F928F929F92AF92BF92CF92DF92EF92AC
:104CC000FF920F931F93CF93DF93CDB7DEB72C974F
:104CD000CDBFDEBF7C016B018A01FC011682178209
:104CE000838181FFC6C188248394912C8C0E9D1EE4
:104CF000F7019381F60193FD859193FF81916F01F7
:104D0000882309F4B2C1853239F493FD859193FF6C
:104D100081916F01853229F4B70190E00E946828E3
:104D2000E7CF512C312C20E02032A8F48B3261F0F7
:104D300028F4803251F0833271F40BC08D3239F097
:104D4000803349F4216028C02260246025C0286097
:104D500023C0206121C027FD27C0382F30533A30AF
:104D600078F426FF06C0FAE05F9E300D1124532E22
:104D700013C08AE0389E300D1124332E20620CC0FF
:104D80008E3221F426FD71C1206406C08C3611F4E8
:104D9000206802C0883641F4F60193FD859193FFA7
:104DA00081916F018111C0CF982F9554933018F0E5
:104DB0009052933028F40C5F1F4FFFE3F9830DC02E
:104DC000833631F0833771F0833509F05EC023C03C
:104DD000F801808189830E5F1F4F44244394512C36
:104DE000540115C03801F2E06F0E711CF801A0806B
:104DF000B18026FF03C0652D70E002C06FEF7FEF2A
:104E0000C5012C870E945D282C0183012C856FE74A
:104E1000262E222218C03801F2E06F0E711CF80114
:104E2000A080B18026FF03C0652D70E002C06FEF47
:104E30007FEFC5012C870E9452282C012C8550E859
:104E4000252E222A830123FC1CC006C0B70180E264
:104E500090E00E9468283A94832D90E04816590605
:104E6000A8F30FC0F50127FC859127FE81915F0112
:104E7000B70190E00E94682831103A94F1E04F1A8F
:104E800051084114510471F7EDC0843611F0893690
:104E900041F5F80127FF07C060817181828193810C
:104EA0000C5F1F4F08C060817181882777FD809556
:104EB000982F0E5F1F4F4FE6B42EB22297FF09C006
:104EC00090958095709561957F4F8F4F9F4FF0E83B
:104ED000BF2A2AE030E0A4010E949428A82EA81836
:104EE00043C0853731F43FEEB32EB2222AE030E0E2
:104EF00024C099EFB92EB2228F36B9F020F488354C
:104F000009F0B3C00DC0803721F0883709F0ADC07B
:104F100002C020E1B22AB4FE0BC084E0B82A08C067
:104F200024FF09C0E6E0BE2A06C028E030E005C044
:104F300020E130E002C020E132E0F801B7FE07C016
:104F400060817181828193810C5F1F4F06C06081F7
:104F5000718180E090E00E5F1F4FA4010E949428B1
:104F6000A82EA818FFE7BF22B6FE0BC02B2D2E7F60
:104F7000A51450F4B4FE0AC0B2FC08C02B2D2E7E3E
:104F800005C07A2C2B2D03C07A2C01C0752C24FF70
:104F90000DC0FE01EA0DF11D8081803311F4297EE0
:104FA00009C022FF06C07394739404C0822F8678D0
:104FB00009F0739423FD14C020FF0FC05A2C731402
:104FC00060F4530C5718732C08C0B70180E290E0CE
:104FD0002C870E94682873942C857314B0F304C046
:104FE000731410F4371801C0312C24FF12C0B7011C
:104FF00080E390E02C870E9468282C8522FF1EC049
:1050000021FF03C088E590E002C088E790E0B70187
:105010000CC0822F867891F021FD02C080E201C091
:105020008BE227FD8DE2B70190E00E94682806C060
:10503000B70180E390E00E9468285A94A514C0F359
:10504000AA94F401EA0DF11DB701808190E00E945D
:105050006828A110F5CF06C0B70180E290E00E9459
:1050600068283A943110F8CF43CEF7012681378172
:1050700002C02FEF3FEFC9012C96CDBFDEBFDF91FD
:10508000CF911F910F91FF90EF90DF90CF90BF9045
:10509000AF909F908F907F906F905F904F903F90D8
:1050A0002F900895FC010590615070400110D8F7D1
:1050B000809590958E0F9F1F0895FC016150704060
:1050C00001900110D8F7809590958E0F9F1F08953D
:1050D0000F931F93CF93DF938C01EB018B8181FDA5
:1050E00003C00FEF1FEF1AC082FF0DC02E813F815A
:1050F0008C819D812817390764F4E881F981019337
:10510000E883F98306C0E885F985802F1995892BF6
:1051100041F78E819F8101968E839F83C801DF9125
:10512000CF911F910F910895FA01AA27283051F1CC
:10513000203181F1E8946F936E7F6E5F7F4F8F4FC8
:105140009F4FAF4FB1E03ED0B4E03CD0670F781F27
:10515000891F9A1FA11D680F791F8A1F911DA11D0C
:105160006A0F711D811D911DA11D20D009F4689445
:105170003F912AE0269F11243019305D3193DEF6ED
:10518000CF010895462F4770405D4193B3E00FD0A3
:10519000C9F7F6CF462F4F70405D4A3318F0495D8E
:1051A00031FD4052419302D0A9F7EACFB4E0A69571
:1051B0009795879577956795BA95C9F70097610593
:1051C000710508959B01AC010A2E069457954795E9
:1051D00037952795BA95C9F7620F731F841F951FDE
:0851E000A01D0895F894FFCF13
:1051E800D23101FD31019F3101BD31019731016497
:1051F8003102B63104943102C23104CE31029A31FF
:1052080002CC3102923102623102FF310CD03102FC
:10521800FB31024F3102BF3102603101B83102BAAD
:1052280031044032013532013732012F3201033265
:10523800011632043E3202013202313202273206AE
:105248002932024E32024432023C32010532022B2C
:1052580032049332018332017032018732018B327A
:1052680004503202913204723202893204853202C9
:105278006231028D32018F32020400000001000FFA
:105288000000000003000000006D11F0110000FF95
:1052980000002110422063308440A550C660E770AA
:1052A800088129914AA16BB18CC1ADD1CEE1EFF152
:1052B8003112100273325222B5529442F772D662FA
:1052C800399318837BB35AA3BDD39CC3FFF3DEE3A2
:1052D8006224433420040114E664C774A44485544A
:1052E8006AA54BB528850995EEE5CFF5ACC58DD5F2
:1052F8005336722611163006D776F6669556B4469A
:105308005BB77AA719973887DFF7FEE79DD7BCC741
:10531800C448E5588668A7784008611802282338E9
:10532800CCC9EDD98EE9AFF9488969990AA92BB991
:10533800F55AD44AB77A966A711A500A333A122A39
:10534800FDDBDCCBBFFB9EEB799B588B3BBB1AABE1
:10535800A66C877CE44CC55C222C033C600C411C89
:10536800AEED8FFDECCDCDDD2AAD0BBD688D499D31
:10537800977EB66ED55EF44E133E322E511E700ED9
:105388009FFFBEEFDDDFFCCF1BBF3AAF599F788F81
:105398008891A981CAB1EBA10CD12DC14EF16FE161
:1053A8008010A100C230E320045025404670676099
:1053B800B9839893FBA3DAB33DC31CD37FE35EF3B1
:1053C800B1029012F322D2323542145277625672E9
:1053D800EAB5CBA5A89589856EF54FE52CD50DC501
:1053E800E234C324A0148104667447642454054439
:1053F800DBA7FAB79987B8975FE77EF71DC73CD751
:10540800D326F2369106B016576676761546345688
:105418004CD96DC90EF92FE9C899E9898AB9ABA9A0
:105428004458654806782768C018E1088238A328D8
:105438007DCB5CDB3FEB1EFBF98BD89BBBAB9ABBF0
:10544800754A545A376A167AF10AD01AB32A923A28
:105458002EFD0FED6CDD4DCDAABD8BADE89DC98D40
:10546800267C076C645C454CA23C832CE01CC10C78
:105478001FEF3EFF5DCF7CDF9BAFBABFD98FF89F90
:10548800176E367E554E745E932EB23ED10EF01EC8
:105498005B4552524F525D205761746368646F6771
:1054A8002074696D6572206F766572666C6F77001F
:1054B8005B4D6564756C6C615D20496E6974696CDF
:1054C800697A696E67204D6564756C6C61005B4D27
:1054D8006564756C6C615D20496E6974696C697A84
:1054E800696E6720452D53746F70005B4D65647558
:1054F8006C6C615D20496E6974696C697A696E6764
:105508002074696D657374616D7020636F756E7456
:105518006572005B4D6564756C6C615D20496E69F0
:1055280074696C697A696E6720457468657243416D
:1055380054005B4D6564756C6C615D204D656475E8
:105548006C6C612049442069733A20253032782CEC
:1055580020006C6F6164696E67206C6567206D65FB
:1055680064756C6C612E006C6F6164696E6720688D
:105578006970206D6564756C6C612E006C6F616478
:10558800696E6720626F6F6D206D6564756C6C6104
:105598002E006C6F6164696E672074657374206D8A
:1055A8006564756C6C612E0020756E6B6E6F776E1E
:1055B800206D6564756C6C612E005B4552524F52CC
:1055C8005D20556E6B6E6F776E206D6564756C6CC3
:1055D800612049443A20253034782C2061626F726A
:1055E80074696E672E0A005B4D6564756C6C615D4D
:1055F8002043616C6C696E6720696E697420666F00
:1056080072207370656369666963206D6564756C83
:105618006C61005B4D6564756C6C615D20537769E6
:10562800746368696E67207072696E746620746F3F
:10563800206C6F77206C6576656C20696E74657276
:1056480072757074005B4D6564756C6C615D205398
:1056580074617274696E67207761746368646F67D8
:105668002074696D6572005B4D6564756C6C615D75
:1056780020456E61626C696E6720452D53746F70AA
:10568800005B4D6564756C6C615D20537461727468
:10569800696E67207374617465206D616368696EF3
:1056A80065005B5374617465204D616368696E655C
:1056B8005D20456E746572696E67207374617465E8
:1056C8003A2049646C65005B5374617465204D61D0
:1056D8006368696E655D20456E746572696E6720E2
:1056E80073746174653A20496E6974005B4D656432
:1056F800756C6C615D20452D53746F7020707265F8
:1057080073736564005B5374617465204D616368ED
:10571800696E655D20456E746572696E6720737485
:105728006174653A204572726F72005B53746174DC
:1057380065204D616368696E655D20456E746572AC
:10574800696E672073746174653A2052756E005BE8
:105758004D6564756C6C615D204D61737465722074
:105768007761746368646F67206572726F722E0068
:105778005B5374617465204D616368696E655D2073
:10578800456E746572696E672073746174653A203A
:1057980053746F70005B5374617465204D61636866
:1057A800696E655D20456E746572696E67207374F5
:1057B8006174653A2048616C74005B537461746568
:1057C800204D616368696E655D20456E7465726918
:1057D8006E672073746174653A205265736574004E
:1057E8005B4D6564756C6C61204C65675D20496E26
:1057F8006974696C697A696E67206C656720776976
:1058080074682049443A20253034780A005B4D6595
:1058180064756C6C61204C65675D20496E697469BC
:105828006C697A696E672073796E63206D616E6149
:1058380067657273005B4D6564756C6C61204C65BF
:10584800675D20496E6974696C697A696E67205072
:10585800444F20656E7472696573005B4D656475AD
:105868006C6C61204C65675D20496E6974696C6970
:105878007A696E672041444320706F727473005BCD
:105888004D6564756C6C61204C65675D20496E6977
:1058980074696C697A696E6720546865726D69739A
:1058A800746F72204144432070696E73005B4D65CC
:1058B80064756C6C61204C65675D20496E6974691C
:1058C8006C697A696E6720766F6C74616765206DA4
:1058D8006F6E69746F72696E672070696E73005BB2
:1058E8004D6564756C6C61204C65675D20496E6917
:1058F80074696C697A696E672073747261696E2065
:10590800677561676520616E6420746F65207365D3
:105918006E736F7220414443005B4D6564756C6C17
:1059280061204C65675D20496E6974696C697A69A4
:105938006E67206D6F746F7220656E636F64657239
:10594800005B4D6564756C6C61204C65675D204932
:105958006E6974696C697A696E67206C6567206521
:105968006E636F646572005B4D6564756C6C612075
:105978004C65675D20496E6974696C697A696E6700
:1059880020696E6372656D656E74616C20656E6307
:105998006F646572005B4D6564756C6C61204C6565
:1059A800675D20496E6974696C697A696E67206100
:1059B8006D706C696669657273005B4D6564756CC2
:1059C8006C61204C65675D204C696D697420737744
:1059D80069746368206572726F723A2025640A00E0
:1059E8005B4D6564756C6C61204869705D20496E1B
:1059F8006974696C697A696E67206C656720776974
:105A080074682049443A20253034780A005B4D6593
:105A180064756C6C61204869705D20496E697469B1
:105A28006C697A696E672073796E63206D616E6147
:105A380067657273005B4D6564756C6C61204869BD
:105A4800705D20496E6974696C697A696E67205067
:105A5800444F20656E7472696573005B4D656475AB
:105A68006C6C61204869705D20496E6974696C6965
:105A78007A696E672041444320706F727473005BCB
:105A88004D6564756C6C61204869705D20496E696C
:105A980074696C697A696E6720546865726D697398
:105AA800746F72204144432070696E73005B4D65CA
:105AB80064756C6C61204869705D20496E69746911
:105AC8006C697A696E6720766F6C74616765206DA2
