:100000000C94FA000C941F010C941F010C941F0116
:100010000C941F010C941F010C941F010C941F01E0
:100020000C941F010C941F010C941F010C941F01D0
:100030000C941F010C941F010C941F010C941F01C0
:100040000C941F010C941F010C941F010C941F01B0
:100050000C941F010C941F010C941F010C941F01A0
:100060000C941F010C941F010C941F010C941F0190
:100070000C941F010C941F010C941F010C941F0180
:100080000C941F010C941F010C941F010C941F0170
:100090000C941F010C941F010C941F010C941F0160
:1000A0000C941F010C941F010C941F010C941F0150
:1000B0000C941F010C941F010C941F010C941F0140
:1000C0000C941F010C941F010C941F010C941F0130
:1000D0000C941F010C941F010C941F010C941F0120
:1000E0000C941F010C941F010C941F010C941F0110
:1000F0000C941F010C941F010C941F010C941F0100
:100100000C941F010C941F010C941F010C941F01EF
:100110000C941F010C941F010C941F010C941F01DF
:100120000C941F010C941F010C941F010C941F01CF
:100130000C941F010C941F010C941F010C941F01BF
:100140000C941F010C941F010C941F010C941F01AF
:100150000C941F010C941F010C941F010C941F019F
:100160000C941F010C941F010C941F010C941F018F
:100170000C941F010C941F010C941F010C941F017F
:100180000C941F010C941F010C941F010C941F016F
:100190000C941F010C941F010C941F010C941F015F
:1001A0000C941F010C941F010C941F010C941F014F
:1001B0000C941F010C941F010C941F010C941F013F
:1001C0000C941F010C941F010C941F010C941F012F
:1001D0000C941F010C941F010C941F010C941F011F
:1001E0000C941F010C941F010C941F010C941F010F
:1001F0000C941F0111241FBECFEFDFE3DEBFCDBF84
:1002000000E00CBF18BE19BE1ABE1BBE10E2A0E073
:10021000B0E2ECEFF0E100E00BBF02C007900D92FE
:10022000A034B107D9F712E2A0E4B0E201C01D92F8
:10023000A936B107E1F70E9407050C947C080C94DD
:100240000000FC01DB0164FF24C080E8858381831A
:1002500080E4828389E04030580721F189E0413011
:1002600058074CF184E24030580709F463C084E237
:1002700041305807DCF185E24038580709F463C083
:100280008BE44030580709F587E616968C9316974D
:1002900024C088E08583818384E0828389E04030C4
:1002A0005807E1F68FE116968C93169780EE179615
:1002B0008C93179712C041305105B9F14230510566
:1002C00014F181E0443F580739F181E216968C938E
:1002D000169780EF17968C93179788E114968C9356
:1002E000149783E015968C931597089582E140301A
:1002F000580759F78BE116968C93169780ED179651
:100300008C931797EACF81EE40305807F1F682E2DE
:1003100016968C931697E1CF81E016968C931697DC
:1003200080E117968C931797D8CF81E016968C931F
:100330001697D3CF83E116968C93169780EC179679
:100340008C931797CACF8FEC16968C931697C5CFC0
:10035000FC01818185FFFDCF60830895FC018181CF
:1003600087FFFDCF80810895E0ECFAE083838091E0
:10037000C20A87FFFCCF0895E0ECFAE01382809177
:10038000C20A87FFFCCF8091C30A0895E0E8F6E037
:1003900080EB818380E4828380E1858380E58093A4
:1003A000C00AE0ECFAE013828091C20A87FFFCCF1A
:1003B0008091C30A0895E0ECFAE083838091C20A39
:1003C00087FFFCCF8091C30A0895E0E8F6E080EB58
:1003D000818380E4828380E1858380E58093C00A05
:1003E000E0ECFAE013828091C20A87FFFCCF809193
:1003F000C30AE0E8F6E081E082838091900688619C
:10040000808B0895CF93DF939C0180E1E0E8F6E0D4
:100410008683C90196958795929582958F708927D5
:100420009F708927E0ECFAE08383A0ECBAE080912A
:10043000C20A87FFFACF8091C30A90E050E12030D2
:10044000350708F464C0522F550F550F550F5660ED
:1004500013965C9313975091C20A57FFFCCF5091AB
:10046000C30AF52FE0E0E82BF92B832F807E8C6008
:10047000A0ECBAE013968C9313978091C20A87FF81
:10048000FCCF8091C30A8FEFA0ECBAE013968C9357
:1004900013978091C20A87FFFCCF242F30E02150B0
:1004A0003040121613060CF044C050E080E090E09B
:1004B000A0ECBAE0860F971F13961C9213974091F9
:1004C000C20A47FFFCCF4091C30AEC0148835F5F3B
:1004D000852F90E0821793076CF3680F791F8FEFD9
:1004E000A0ECBAE013968C9313978091C20A87FF11
:1004F000FCCF8091C30ADB018C9380E1A0E8B6E0D9
:1005000015968C931597CF01DF91CF910895220F07
:10051000220F220F236013962C9313973091C20A57
:1005200037FFFCCF2091C30AF22FE0E0E82BF92B34
:10053000AACF80E090E0D1CFCF93DF939C01809150
:1005400084068F7EE0E8F6E08483C901969587955E
:10055000929582958F7089279F708927E0ECFAE049
:100560008383A0ECBAE08091C20A87FFFACF809122
:10057000C30A90E050E120303507E0F1522F550FCB
:10058000550F550F566013965C9313975091C20AFE
:1005900057FFFCCF5091C30AF52FE0E0E82BF92B71
:1005A000832F807E8061A0ECBAE013968C93139722
:1005B0008091C20A87FFFCCF8091C30A442371F067
:1005C000A62FB72F90E0C0ECDAE08D918B8380915D
:1005D000C20A87FFFCCF9F5F9417B8F3809184060F
:1005E0008061A0E8B6E014968C931497CF01DF9158
:1005F000CF910895220F220F220F246013962C937F
:1006000013972091C20A27FFFCCF2091C30AF22F33
:10061000E0E0E82BF92BD2CF80E1E0E8F6E086833A
:10062000E0ECFAE013828091C20A87FFFCCF2091B0
:10063000C30A30E0E0ECFAE013828091C20A87FF3F
:10064000FCCF4091C30A80E1E0E8F6E08583942F77
:1006500080E0282B392BC901089588ED84BF82E002
:10066000809350008091510081FFFCCF88ED84BFC2
:1006700081E080934000089588ED84BF8091500010
:100680008460809350008091510082FFFCCF85E010
:10069000E0E4F0E0838382E0809300048091010431
:1006A0008823E1F708951F93182F8A3051F0809125
:1006B000A10985FFFCCF1093A00980E090E01F9175
:1006C00008958DE00E945303F2CFDF93CF930F92F2
:1006D000CDB7DEB71092512010925F2210926022A7
:1006E00010925722109258221092462010924720C2
:1006F00010924220109243201092482010924920DC
:1007000082E090E080934420909345208093532290
:100710009093542281E0E0E4F6E081830E94E501B9
:10072000809188068823E1F380E090E20E949B0597
:100730008FEF97EAA1E681509040A040E1F700C01A
:10074000000081E390E0BE016F5F7F4F41E00E94B7
:10075000020200D00F92EDB7FEB731968EE090E224
:10076000ADB7BEB711968D939C9312978981828302
:1007700013820E9489050F900F900F900F9080E3D5
:1007800091E061E570E241E00E94020220915F2267
:1007900030916022282B392B20935F2230936022E6
:1007A00000D00F92EDB7FEB7319682E190E2ADB77F
:1007B000BEB711968D939C9312978091512082839E
:1007C00013820E9489050F900F900F900F908091D7
:1007D0005120883021F00F90CF91DF91089580E073
:1007E00098E063E570E242E00E94020220915F22FD
:1007F00030916022282B392B20935F223093602286
:1008000080915320909154208093572290935822A6
:1008100088E098E063E570E242E00E9402022091E5
:100820005F2230916022282B392B20935F22309356
:100830006022809153209091542080934620909381
:10084000472080E198E063E570E244E00E94020204
:1008500020915F2230916022282B392B20935F2238
:1008600030936022809153209091542080934220B5
:100870009093432088E198E063E570E244E00E94B1
:10088000020220915F2230916022282B392B209385
:100890005F22309360228091532090915420809366
:1008A0004820909349200F90CF91DF910895BC018B
:1008B00080E090E246E00E949C0220915F2230910D
:1008C0006022282B392B20935F22309360220895D9
:1008D000CF93DF93EC0180915F2280FD0DC080E01B
:1008E00090E1BE0143E00E94020280935F22909358
:1008F0006022DF91CF91089580E291E061E570E29E
:1009000041E00E94020280935F229093602280E384
:1009100091E061E570E241E00E949C0280915120EB
:100920008830E9F680E098E063E570E242E00E94FA
:10093000020220915F2230916022282B392B2093D4
:100940005F223093602280915320909154208093B5
:1009500057229093582288E098E063E570E242E0E5
:100960000E94020220915F2230916022282B392BB5
:1009700020935F22309360228091532090915420E5
:10098000809346209093472080E198E063E570E2F1
:1009900044E00E94020220915F2230916022282BC5
:1009A000392B20935F2230936022809153209091C5
:1009B0005420809342209093432080915520909121
:1009C0005620809344209093452088E198E063E589
:1009D00070E244E00E94020220915F223091602286
:1009E000282B392B20935F22309360228091532053
:1009F00090915420809348209093492080915520D5
:100A000090915620809353229093542268CFEF9276
:100A1000FF920F931F93CF93DF930E942D0382E3E6
:100A200090E2809365229093662280E696E060EAE9
:100A300079E040E854E00E94210181E290E20E94C6
:100A40009B050E9465038AE2E82E80E2F82E8091E1
:100A50004F2090915020019680934F2090935020EA
:100A60008AE490E20E946804C0912E20D0912F2049
:100A700080914A2088831982009130201091312082
:100A800060914A2070E080E090E028EE33E040E0A2
:100A900050E00E946A05D8016D937D938D939C93DD
:100AA0001397CE010E94570400D00F92EDB7FEB706
:100AB0003196ADB7BEB71196ED92FC921297809128
:100AC0004A20828313820E9489050F900F900F9015
:100AD0000F90BDCF629FD001739FF001829FE00D08
:100AE000F11D649FE00DF11D929FF00D839FF00DAD
:100AF000749FF00D659FF00D9927729FB00DE11D59
:100B0000F91F639FB00DE11DF91FBD01CF01112435
:100B10000895DF93CF93CDB7DEB7FE01369661918E
:100B200071918091652290916622AF010E94D20559
:100B3000CF91DF910895EF92FF920F931F93CF9380
:100B4000DF938C01E0916522F0916622838181FF21
:100B50001FC0C0E0D0E00AC0DB011896ED91FC9107
:100B600019971995009711F0CFEFDFEFF8018191F8
:100B70008F016091652270916622882369F7DB01FD
:100B80001896ED91FC9119978AE01995009711F04C
:100B9000CFEFDFEFCE01DF91CF911F910F91FF904B
:100BA000EF9008952F923F924F925F926F927F92B3
:100BB0008F929F92AF92BF92CF92DF92EF92FF926D
:100BC0000F931F93DF93CF93CDB7DEB72C97CDBF95
:100BD000DEBF6C011B018A01FC0116821782838132
:100BE00081FFD1C12E010894411C511CF601938153
:100BF000F10193FD859193FF81911F01882309F4F1
:100C0000BEC1853239F493FD859193FF81911F0117
:100C1000853229F490E0B6010E94F207E7CFEE2476
:100C2000FF2420E02032B0F48B3269F08C3228F4BB
:100C3000803251F0833271F40BC08D3239F0803341
:100C400049F421602CC02260246029C0286027C09C
:100C5000206125C027FD2CC0382F30533A3098F43E
:100C600026FF08C08E2D880FE82EEE0CEE0CE80E45
:100C7000E30E15C08F2D880FF82EFF0CFF0CF80E19
:100C8000F30E20620CC08E3221F426FD78C1206460
:100C900006C08C3611F4206802C0883649F4F10190
:100CA00093FD859193FF81911F01882309F0BACFAD
:100CB000982F9554933018F09052933028F40C5F8D
:100CC0001F4FFFE3F9830DC0833631F0833771F096
:100CD000833509F060C022C0F801808189830E5FEE
:100CE0001F4F420171E0A72EB12C16C062E0662EA4
:100CF000712C600E711EF8018080918026FF03C068
:100D00006E2D70E002C06FEF7FEFC4012C870E9450
:100D1000E7075C0183012C852F7717C052E0652E11
:100D2000712C600E711EF8018080918026FF03C037
:100D30006E2D70E002C06FEF7FEFC4012C870E9420
:100D4000DC075C012C852068830123FD20C008C0DE
:100D500080E290E0B6012C870E94F207FA942C857D
:100D60008F2D90E0A816B90698F311C0F40127FD65
:100D7000859127FF81914F0190E0B6012C870E9459
:100D8000F2072C85F110FA940894A108B108A11477
:100D9000B10461F7F1C0843611F0893649F527FFB7
:100DA00008C0F80160817181828193810C5F1F4FBF
:100DB00009C0F80160817181882777FD8095982F9F
:100DC0000E5F1F4F4FE6B42EB22297FF09C09095D9
:100DD0008095709561957F4F8F4F9F4FF0E8BF2AA8
:100DE000A2012AE030E00E941E08782E741845C047
:100DF000853731F43FEEB32EB2222AE030E025C031
:100E000099EFB92EB2228F36C1F0803720F48835A1
:100E100009F0B5C00DC0803721F0883709F0AFC0A8
:100E200002C020E1B22AB4FE0BC084E0B82A08C098
:100E3000B4FE09C0E6E0BE2A06C028E030E005C0E6
:100E400020E130E002C020E132E0B7FE08C0F80146
:100E500060817181828193810C5F1F4F07C0F8010F
:100E60006081718180E090E00E5F1F4FA2010E94BF
:100E70001E08782E7418FFE7BF22B6FE0BC02EEFB7
:100E8000B2227E1438F4B4FE07C0B2FC05C08FEE67
:100E9000B82202C0A72C01C0AE2C8B2D90E0B4FE6E
:100EA0000DC0FE01E70DF11D2081203319F4E9EE9C
:100EB000BE2209C0A394B2FE06C004C0867890701A
:100EC000009709F0A3948B2C9924B3FC14C0B0FEB6
:100ED0000FC0AF1428F4E72CEF0CEA18AF2C08C0B1
:100EE000E72C06C080E290E0B6010E94F207A394CE
:100EF000AF14C0F304C0AF1410F4FA1801C0FF24FB
:100F000084FE0FC080E390E0B6010E94F20782FEEB
:100F10001FC081FE03C088E590E010C088E790E024
:100F20000DC0C40186789070009791F081FC02C0DA
:100F300080E201C08BE2B7FC8DE290E0B6010E9436
:100F4000F20706C080E390E0B6010E94F207EA943F
:100F50007E14C0F37A94F201E70DF11D808190E0D8
:100F6000B6010E94F2077720A9F706C080E290E060
:100F7000B6010E94F207FA94FF20C1F737CEF601BE
:100F80002681378102C02FEF3FEFC9012C96CDBFDC
:100F9000DEBFCF91DF911F910F91FF90EF90DF9017
:100FA000CF90BF90AF909F908F907F906F905F9009
:100FB0004F903F902F900895FC0105906150704034
:100FC0000110D8F7809590958E0F9F1F0895FC0112
:100FD0006150704001900110D8F7809590958E0F68
:100FE0009F1F08950F931F93CF93DF938C01EB0105
:100FF0008B8181FF1BC082FF0DC02E813F818C81C0
:101000009D812817390764F4E881F9810193E88309
:10101000F98306C0E885F985802F1995009731F48A
:101020008E819F8101968E839F8302C00FEF1FEFF9
:10103000C801DF91CF911F910F910895FA01AA275E
:10104000283051F1203181F1E8946F936E7F6E5F0B
:101050007F4F8F4F9F4FAF4FB1E03ED0B4E03CD0B9
:10106000670F781F891F9A1FA11D680F791F8A1F9C
:10107000911DA11D6A0F711D811D911DA11D20D003
:1010800009F468943F912AE0269F11243019305DBD
:101090003193DEF6CF010895462F4770405D4193AE
:1010A000B3E00FD0C9F7F6CF462F4F70405D4A33FB
:1010B00018F0495D31FD4052419302D0A9F7EACFC3
:1010C000B4E0A6959795879577956795BA95C9F7F2
:1010D00000976105710508959B01AC010A2E0694E5
:1010E0005795479537952795BA95C9F7620F731F9E
:0C10F000841F951FA01D0895F894FFCFE9
:1010FC00454550524F4D206C6F6164656400255816
:10110C000A00616C5F7374617475733A2025640A0C
:10111C00005374617274696E670025640A00592269
:10112C005B220000000200000000530300000000DE
:00000001FF
